{
  "_format": "hh-sol-artifact-1",
  "contractName": "Domains",
  "sourceName": "contracts/Domains.sol",
  "abi": [
    {
      "inputs": [
        {
          "internalType": "string",
          "name": "_tokenName",
          "type": "string"
        },
        {
          "internalType": "string",
          "name": "_tokenSymbol",
          "type": "string"
        },
        {
          "internalType": "string",
          "name": "_tld",
          "type": "string"
        },
        {
          "internalType": "uint256",
          "name": "_price",
          "type": "uint256"
        }
      ],
      "stateMutability": "payable",
      "type": "constructor"
    },
    {
      "anonymous": false,
      "inputs": [
        {
          "indexed": true,
          "internalType": "address",
          "name": "owner",
          "type": "address"
        },
        {
          "indexed": true,
          "internalType": "address",
          "name": "approved",
          "type": "address"
        },
        {
          "indexed": true,
          "internalType": "uint256",
          "name": "tokenId",
          "type": "uint256"
        }
      ],
      "name": "Approval",
      "type": "event"
    },
    {
      "anonymous": false,
      "inputs": [
        {
          "indexed": true,
          "internalType": "address",
          "name": "owner",
          "type": "address"
        },
        {
          "indexed": true,
          "internalType": "address",
          "name": "operator",
          "type": "address"
        },
        {
          "indexed": false,
          "internalType": "bool",
          "name": "approved",
          "type": "bool"
        }
      ],
      "name": "ApprovalForAll",
      "type": "event"
    },
    {
      "anonymous": false,
      "inputs": [
        {
          "indexed": true,
          "internalType": "address",
          "name": "from",
          "type": "address"
        },
        {
          "indexed": true,
          "internalType": "address",
          "name": "to",
          "type": "address"
        },
        {
          "indexed": true,
          "internalType": "uint256",
          "name": "tokenId",
          "type": "uint256"
        }
      ],
      "name": "Transfer",
      "type": "event"
    },
    {
      "inputs": [
        {
          "internalType": "address",
          "name": "to",
          "type": "address"
        },
        {
          "internalType": "uint256",
          "name": "tokenId",
          "type": "uint256"
        }
      ],
      "name": "approve",
      "outputs": [],
      "stateMutability": "nonpayable",
      "type": "function"
    },
    {
      "inputs": [
        {
          "internalType": "address",
          "name": "owner",
          "type": "address"
        }
      ],
      "name": "balanceOf",
      "outputs": [
        {
          "internalType": "uint256",
          "name": "",
          "type": "uint256"
        }
      ],
      "stateMutability": "view",
      "type": "function"
    },
    {
      "inputs": [
        {
          "internalType": "string",
          "name": "",
          "type": "string"
        }
      ],
      "name": "domains",
      "outputs": [
        {
          "internalType": "address",
          "name": "",
          "type": "address"
        }
      ],
      "stateMutability": "view",
      "type": "function"
    },
    {
      "inputs": [
        {
          "internalType": "string",
          "name": "name",
          "type": "string"
        }
      ],
      "name": "getAddress",
      "outputs": [
        {
          "internalType": "address",
          "name": "",
          "type": "address"
        }
      ],
      "stateMutability": "view",
      "type": "function"
    },
    {
      "inputs": [
        {
          "internalType": "uint256",
          "name": "tokenId",
          "type": "uint256"
        }
      ],
      "name": "getApproved",
      "outputs": [
        {
          "internalType": "address",
          "name": "",
          "type": "address"
        }
      ],
      "stateMutability": "view",
      "type": "function"
    },
    {
      "inputs": [
        {
          "internalType": "string",
          "name": "name",
          "type": "string"
        }
      ],
      "name": "getRecord",
      "outputs": [
        {
          "components": [
            {
              "internalType": "string",
              "name": "twitter",
              "type": "string"
            },
            {
              "internalType": "string",
              "name": "discord",
              "type": "string"
            }
          ],
          "internalType": "struct Domains.Record",
          "name": "",
          "type": "tuple"
        }
      ],
      "stateMutability": "view",
      "type": "function"
    },
    {
      "inputs": [
        {
          "internalType": "address",
          "name": "owner",
          "type": "address"
        },
        {
          "internalType": "address",
          "name": "operator",
          "type": "address"
        }
      ],
      "name": "isApprovedForAll",
      "outputs": [
        {
          "internalType": "bool",
          "name": "",
          "type": "bool"
        }
      ],
      "stateMutability": "view",
      "type": "function"
    },
    {
      "inputs": [],
      "name": "name",
      "outputs": [
        {
          "internalType": "string",
          "name": "",
          "type": "string"
        }
      ],
      "stateMutability": "view",
      "type": "function"
    },
    {
      "inputs": [
        {
          "internalType": "uint256",
          "name": "tokenId",
          "type": "uint256"
        }
      ],
      "name": "ownerOf",
      "outputs": [
        {
          "internalType": "address",
          "name": "",
          "type": "address"
        }
      ],
      "stateMutability": "view",
      "type": "function"
    },
    {
      "inputs": [],
      "name": "price",
      "outputs": [
        {
          "internalType": "uint256",
          "name": "",
          "type": "uint256"
        }
      ],
      "stateMutability": "view",
      "type": "function"
    },
    {
      "inputs": [
        {
          "internalType": "string",
          "name": "",
          "type": "string"
        }
      ],
      "name": "records",
      "outputs": [
        {
          "internalType": "string",
          "name": "twitter",
          "type": "string"
        },
        {
          "internalType": "string",
          "name": "discord",
          "type": "string"
        }
      ],
      "stateMutability": "view",
      "type": "function"
    },
    {
      "inputs": [
        {
          "internalType": "string",
          "name": "name",
          "type": "string"
        }
      ],
      "name": "register",
      "outputs": [],
      "stateMutability": "payable",
      "type": "function"
    },
    {
      "inputs": [
        {
          "internalType": "address",
          "name": "from",
          "type": "address"
        },
        {
          "internalType": "address",
          "name": "to",
          "type": "address"
        },
        {
          "internalType": "uint256",
          "name": "tokenId",
          "type": "uint256"
        }
      ],
      "name": "safeTransferFrom",
      "outputs": [],
      "stateMutability": "nonpayable",
      "type": "function"
    },
    {
      "inputs": [
        {
          "internalType": "address",
          "name": "from",
          "type": "address"
        },
        {
          "internalType": "address",
          "name": "to",
          "type": "address"
        },
        {
          "internalType": "uint256",
          "name": "tokenId",
          "type": "uint256"
        },
        {
          "internalType": "bytes",
          "name": "_data",
          "type": "bytes"
        }
      ],
      "name": "safeTransferFrom",
      "outputs": [],
      "stateMutability": "nonpayable",
      "type": "function"
    },
    {
      "inputs": [
        {
          "internalType": "address",
          "name": "operator",
          "type": "address"
        },
        {
          "internalType": "bool",
          "name": "approved",
          "type": "bool"
        }
      ],
      "name": "setApprovalForAll",
      "outputs": [],
      "stateMutability": "nonpayable",
      "type": "function"
    },
    {
      "inputs": [
        {
          "internalType": "string",
          "name": "name",
          "type": "string"
        },
        {
          "components": [
            {
              "internalType": "string",
              "name": "twitter",
              "type": "string"
            },
            {
              "internalType": "string",
              "name": "discord",
              "type": "string"
            }
          ],
          "internalType": "struct Domains.Record",
          "name": "record",
          "type": "tuple"
        }
      ],
      "name": "setRecord",
      "outputs": [],
      "stateMutability": "nonpayable",
      "type": "function"
    },
    {
      "inputs": [
        {
          "internalType": "bytes4",
          "name": "interfaceId",
          "type": "bytes4"
        }
      ],
      "name": "supportsInterface",
      "outputs": [
        {
          "internalType": "bool",
          "name": "",
          "type": "bool"
        }
      ],
      "stateMutability": "view",
      "type": "function"
    },
    {
      "inputs": [],
      "name": "symbol",
      "outputs": [
        {
          "internalType": "string",
          "name": "",
          "type": "string"
        }
      ],
      "stateMutability": "view",
      "type": "function"
    },
    {
      "inputs": [],
      "name": "tld",
      "outputs": [
        {
          "internalType": "string",
          "name": "",
          "type": "string"
        }
      ],
      "stateMutability": "view",
      "type": "function"
    },
    {
      "inputs": [],
      "name": "tokenName",
      "outputs": [
        {
          "internalType": "string",
          "name": "",
          "type": "string"
        }
      ],
      "stateMutability": "view",
      "type": "function"
    },
    {
      "inputs": [
        {
          "internalType": "uint256",
          "name": "tokenId",
          "type": "uint256"
        }
      ],
      "name": "tokenURI",
      "outputs": [
        {
          "internalType": "string",
          "name": "",
          "type": "string"
        }
      ],
      "stateMutability": "view",
      "type": "function"
    },
    {
      "inputs": [
        {
          "internalType": "address",
          "name": "from",
          "type": "address"
        },
        {
          "internalType": "address",
          "name": "to",
          "type": "address"
        },
        {
          "internalType": "uint256",
          "name": "tokenId",
          "type": "uint256"
        }
      ],
      "name": "transferFrom",
      "outputs": [],
      "stateMutability": "nonpayable",
      "type": "function"
    }
  ],
  "bytecode": "0x6080604052604051806108a0016040528061086b815260200162004f2461086b9139600b90805190602001906200003892919062000240565b506040518060400160405280600d81526020017f3c2f746578743e3c2f7376673e00000000000000000000000000000000000000815250600c90805190602001906200008692919062000240565b506040516200578f3803806200578f8339818101604052810190620000ac9190620004c8565b83838160009080519060200190620000c692919062000240565b508060019080519060200190620000df92919062000240565b5050508360089080519060200190620000fa92919062000240565b5081600990805190602001906200011392919062000240565b5080600a81905550620001676040518060400160405280601881526020017f2573206e616d652073657276696365206465706c6f7965640000000000000000815250836200017160201b6200167e1760201c565b5050505062000694565b6200021382826040516024016200018a929190620005f4565b6040516020818303038152906040527f4b5c4277000000000000000000000000000000000000000000000000000000007bffffffffffffffffffffffffffffffffffffffffffffffffffffffff19166020820180517bffffffffffffffffffffffffffffffffffffffffffffffffffffffff83818316178352505050506200021760201b60201c565b5050565b60008151905060006a636f6e736f6c652e6c6f679050602083016000808483855afa5050505050565b8280546200024e906200065e565b90600052602060002090601f016020900481019282620002725760008555620002be565b82601f106200028d57805160ff1916838001178555620002be565b82800160010185558215620002be579182015b82811115620002bd578251825591602001919060010190620002a0565b5b509050620002cd9190620002d1565b5090565b5b80821115620002ec576000816000905550600101620002d2565b5090565b6000604051905090565b600080fd5b600080fd5b600080fd5b600080fd5b6000601f19601f8301169050919050565b7f4e487b7100000000000000000000000000000000000000000000000000000000600052604160045260246000fd5b62000359826200030e565b810181811067ffffffffffffffff821117156200037b576200037a6200031f565b5b80604052505050565b600062000390620002f0565b90506200039e82826200034e565b919050565b600067ffffffffffffffff821115620003c157620003c06200031f565b5b620003cc826200030e565b9050602081019050919050565b60005b83811015620003f9578082015181840152602081019050620003dc565b8381111562000409576000848401525b50505050565b6000620004266200042084620003a3565b62000384565b90508281526020810184848401111562000445576200044462000309565b5b62000452848285620003d9565b509392505050565b600082601f83011262000472576200047162000304565b5b8151620004848482602086016200040f565b91505092915050565b6000819050919050565b620004a2816200048d565b8114620004ae57600080fd5b50565b600081519050620004c28162000497565b92915050565b60008060008060808587031215620004e557620004e4620002fa565b5b600085015167ffffffffffffffff811115620005065762000505620002ff565b5b62000514878288016200045a565b945050602085015167ffffffffffffffff811115620005385762000537620002ff565b5b62000546878288016200045a565b935050604085015167ffffffffffffffff8111156200056a5762000569620002ff565b5b62000578878288016200045a565b92505060606200058b87828801620004b1565b91505092959194509250565b600081519050919050565b600082825260208201905092915050565b6000620005c08262000597565b620005cc8185620005a2565b9350620005de818560208601620003d9565b620005e9816200030e565b840191505092915050565b60006040820190508181036000830152620006108185620005b3565b90508181036020830152620006268184620005b3565b90509392505050565b7f4e487b7100000000000000000000000000000000000000000000000000000000600052602260045260246000fd5b600060028204905060018216806200067757607f821691505b602082108114156200068e576200068d6200062f565b5b50919050565b61488080620006a46000396000f3fe6080604052600436106101355760003560e01c80636c02a931116100ab578063b88d4fde1161006f578063b88d4fde14610461578063bf40fac11461048a578063c87b56dd146104c7578063d52901da14610504578063e985e9c51461052d578063f2c298be1461056a57610135565b80636c02a9311461037a57806370a08231146103a557806395d89b41146103e2578063a035b1fe1461040d578063a22cb4651461043857610135565b806323b872dd116100fd57806323b872dd14610245578063264492351461026e5780632d551432146102ab57806342842e0e146102d6578063541e771d146102ff5780636352211e1461033d57610135565b806301ffc9a71461013a57806306fdde0314610177578063081812fc146101a2578063095ea7b3146101df57806311dd884514610208575b600080fd5b34801561014657600080fd5b50610161600480360381019061015c91906129bf565b610586565b60405161016e9190612a07565b60405180910390f35b34801561018357600080fd5b5061018c610668565b6040516101999190612abb565b60405180910390f35b3480156101ae57600080fd5b506101c960048036038101906101c49190612b13565b6106fa565b6040516101d69190612b81565b60405180910390f35b3480156101eb57600080fd5b5061020660048036038101906102019190612bc8565b61077f565b005b34801561021457600080fd5b5061022f600480360381019061022a9190612c6d565b610897565b60405161023c9190612d48565b60405180910390f35b34801561025157600080fd5b5061026c60048036038101906102679190612d6a565b6109f6565b005b34801561027a57600080fd5b5061029560048036038101906102909190612eed565b610a56565b6040516102a29190612b81565b60405180910390f35b3480156102b757600080fd5b506102c0610a9f565b6040516102cd9190612abb565b60405180910390f35b3480156102e257600080fd5b506102fd60048036038101906102f89190612d6a565b610b2d565b005b34801561030b57600080fd5b5061032660048036038101906103219190612eed565b610b4d565b604051610334929190612f36565b60405180910390f35b34801561034957600080fd5b50610364600480360381019061035f9190612b13565b610c97565b6040516103719190612b81565b60405180910390f35b34801561038657600080fd5b5061038f610d49565b60405161039c9190612abb565b60405180910390f35b3480156103b157600080fd5b506103cc60048036038101906103c79190612f6d565b610dd7565b6040516103d99190612fa9565b60405180910390f35b3480156103ee57600080fd5b506103f7610e8f565b6040516104049190612abb565b60405180910390f35b34801561041957600080fd5b50610422610f21565b60405161042f9190612fa9565b60405180910390f35b34801561044457600080fd5b5061045f600480360381019061045a9190612ff0565b610f27565b005b34801561046d57600080fd5b50610488600480360381019061048391906130d1565b610f3d565b005b34801561049657600080fd5b506104b160048036038101906104ac9190612c6d565b610f9f565b6040516104be9190612b81565b60405180910390f35b3480156104d357600080fd5b506104ee60048036038101906104e99190612b13565b610fea565b6040516104fb9190612abb565b60405180910390f35b34801561051057600080fd5b5061052b60048036038101906105269190613178565b61113c565b005b34801561053957600080fd5b50610554600480360381019061054f91906131f4565b61121f565b6040516105619190612a07565b60405180910390f35b610584600480360381019061057f9190612c6d565b6112b3565b005b60007f80ac58cd000000000000000000000000000000000000000000000000000000007bffffffffffffffffffffffffffffffffffffffffffffffffffffffff1916827bffffffffffffffffffffffffffffffffffffffffffffffffffffffff1916148061065157507f5b5e139f000000000000000000000000000000000000000000000000000000007bffffffffffffffffffffffffffffffffffffffffffffffffffffffff1916827bffffffffffffffffffffffffffffffffffffffffffffffffffffffff1916145b8061066157506106608261171a565b5b9050919050565b60606000805461067790613263565b80601f01602080910402602001604051908101604052809291908181526020018280546106a390613263565b80156106f05780601f106106c5576101008083540402835291602001916106f0565b820191906000526020600020905b8154815290600101906020018083116106d357829003601f168201915b5050505050905090565b600061070582611784565b610744576040517f08c379a000000000000000000000000000000000000000000000000000000000815260040161073b90613307565b60405180910390fd5b6004600083815260200190815260200160002060009054906101000a900473ffffffffffffffffffffffffffffffffffffffff169050919050565b600061078a82610c97565b90508073ffffffffffffffffffffffffffffffffffffffff168373ffffffffffffffffffffffffffffffffffffffff1614156107fb576040517f08c379a00000000000000000000000000000000000000000000000000000000081526004016107f290613399565b60405180910390fd5b8073ffffffffffffffffffffffffffffffffffffffff1661081a6117f0565b73ffffffffffffffffffffffffffffffffffffffff1614806108495750610848816108436117f0565b61121f565b5b610888576040517f08c379a000000000000000000000000000000000000000000000000000000000815260040161087f9061342b565b60405180910390fd5b61089283836117f8565b505050565b61089f612896565b600e83836040516108b192919061347b565b90815260200160405180910390206040518060400160405290816000820180546108da90613263565b80601f016020809104026020016040519081016040528092919081815260200182805461090690613263565b80156109535780601f1061092857610100808354040283529160200191610953565b820191906000526020600020905b81548152906001019060200180831161093657829003601f168201915b5050505050815260200160018201805461096c90613263565b80601f016020809104026020016040519081016040528092919081815260200182805461099890613263565b80156109e55780601f106109ba576101008083540402835291602001916109e5565b820191906000526020600020905b8154815290600101906020018083116109c857829003601f168201915b505050505081525050905092915050565b610a07610a016117f0565b826118b1565b610a46576040517f08c379a0000000000000000000000000000000000000000000000000000000008152600401610a3d90613506565b60405180910390fd5b610a5183838361198f565b505050565b600d818051602081018201805184825260208301602085012081835280955050505050506000915054906101000a900473ffffffffffffffffffffffffffffffffffffffff1681565b60098054610aac90613263565b80601f0160208091040260200160405190810160405280929190818152602001828054610ad890613263565b8015610b255780601f10610afa57610100808354040283529160200191610b25565b820191906000526020600020905b815481529060010190602001808311610b0857829003601f168201915b505050505081565b610b4883838360405180602001604052806000815250610f3d565b505050565b600e81805160208101820180518482526020830160208501208183528095505050505050600091509050806000018054610b8690613263565b80601f0160208091040260200160405190810160405280929190818152602001828054610bb290613263565b8015610bff5780601f10610bd457610100808354040283529160200191610bff565b820191906000526020600020905b815481529060010190602001808311610be257829003601f168201915b505050505090806001018054610c1490613263565b80601f0160208091040260200160405190810160405280929190818152602001828054610c4090613263565b8015610c8d5780601f10610c6257610100808354040283529160200191610c8d565b820191906000526020600020905b815481529060010190602001808311610c7057829003601f168201915b5050505050905082565b6000806002600084815260200190815260200160002060009054906101000a900473ffffffffffffffffffffffffffffffffffffffff169050600073ffffffffffffffffffffffffffffffffffffffff168173ffffffffffffffffffffffffffffffffffffffff161415610d40576040517f08c379a0000000000000000000000000000000000000000000000000000000008152600401610d3790613598565b60405180910390fd5b80915050919050565b60088054610d5690613263565b80601f0160208091040260200160405190810160405280929190818152602001828054610d8290613263565b8015610dcf5780601f10610da457610100808354040283529160200191610dcf565b820191906000526020600020905b815481529060010190602001808311610db257829003601f168201915b505050505081565b60008073ffffffffffffffffffffffffffffffffffffffff168273ffffffffffffffffffffffffffffffffffffffff161415610e48576040517f08c379a0000000000000000000000000000000000000000000000000000000008152600401610e3f9061362a565b60405180910390fd5b600360008373ffffffffffffffffffffffffffffffffffffffff1673ffffffffffffffffffffffffffffffffffffffff168152602001908152602001600020549050919050565b606060018054610e9e90613263565b80601f0160208091040260200160405190810160405280929190818152602001828054610eca90613263565b8015610f175780601f10610eec57610100808354040283529160200191610f17565b820191906000526020600020905b815481529060010190602001808311610efa57829003601f168201915b5050505050905090565b600a5481565b610f39610f326117f0565b8383611bf6565b5050565b610f4e610f486117f0565b836118b1565b610f8d576040517f08c379a0000000000000000000000000000000000000000000000000000000008152600401610f8490613506565b60405180910390fd5b610f9984848484611d63565b50505050565b6000600d8383604051610fb392919061347b565b908152602001604051809103902060009054906101000a900473ffffffffffffffffffffffffffffffffffffffff16905092915050565b6060610ff582611784565b611034576040517f08c379a000000000000000000000000000000000000000000000000000000000815260040161102b906136bc565b60405180910390fd5b600060066000848152602001908152602001600020805461105490613263565b80601f016020809104026020016040519081016040528092919081815260200182805461108090613263565b80156110cd5780601f106110a2576101008083540402835291602001916110cd565b820191906000526020600020905b8154815290600101906020018083116110b057829003601f168201915b5050505050905060006110de611dbf565b90506000815114156110f4578192505050611137565b60008251111561112957808260405160200161111192919061370d565b60405160208183030381529060405292505050611137565b61113284611dd6565b925050505b919050565b3373ffffffffffffffffffffffffffffffffffffffff16600d848460405161116592919061347b565b908152602001604051809103902060009054906101000a900473ffffffffffffffffffffffffffffffffffffffff1673ffffffffffffffffffffffffffffffffffffffff16146111ea576040517f08c379a00000000000000000000000000000000000000000000000000000000081526004016111e1906137a3565b60405180910390fd5b80600e84846040516111fd92919061347b565b908152602001604051809103902081816112179190613b12565b905050505050565b6000600560008473ffffffffffffffffffffffffffffffffffffffff1673ffffffffffffffffffffffffffffffffffffffff16815260200190815260200160002060008373ffffffffffffffffffffffffffffffffffffffff1673ffffffffffffffffffffffffffffffffffffffff16815260200190815260200160002060009054906101000a900460ff16905092915050565b600073ffffffffffffffffffffffffffffffffffffffff16600d83836040516112dd92919061347b565b908152602001604051809103902060009054906101000a900473ffffffffffffffffffffffffffffffffffffffff1673ffffffffffffffffffffffffffffffffffffffff1614611362576040517f08c379a000000000000000000000000000000000000000000000000000000000815260040161135990613b6c565b60405180910390fd5b600a543410156113a7576040517f08c379a000000000000000000000000000000000000000000000000000000000815260040161139e90613bd8565b60405180910390fd5b6000828260096040516020016113bf93929190613cc3565b60405160208183030381529060405290506000600b82600c6040516020016113e993929190613cf4565b604051602081830303815290604052905060006114066007611e7d565b9050600061145786868080601f016020809104026020016040519081016040528093929190818152602001838380828437600081840152601f19601f82011690508083019250505050505050611e8b565b9050600061146482612040565b90506115586040518060600160405280603181526020016147da6031913988888080601f016020809104026020016040519081016040528093929190818152602001838380828437600081840152601f19601f82011690508083019250505050505050600980546114d490613263565b80601f016020809104026020016040519081016040528092919081815260200182805461150090613263565b801561154d5780601f106115225761010080835404028352916020019161154d565b820191906000526020600020905b81548152906001019060200180831161153057829003601f168201915b5050505050866121a1565b600061159186600861156988612243565b8560405160200161157d9493929190613eed565b604051602081830303815290604052612243565b90506000816040516020016115a69190613fae565b60405160208183030381529060405290506115f66040518060400160405280600e81526020017f46696e616c20746f6b656e5552490000000000000000000000000000000000008152508261167e565b61160033866123db565b61160a85826123f9565b33600d8a8a60405161161d92919061347b565b908152602001604051809103902060006101000a81548173ffffffffffffffffffffffffffffffffffffffff021916908373ffffffffffffffffffffffffffffffffffffffff160217905550611673600761246d565b505050505050505050565b6117168282604051602401611694929190612f36565b6040516020818303038152906040527f4b5c4277000000000000000000000000000000000000000000000000000000007bffffffffffffffffffffffffffffffffffffffffffffffffffffffff19166020820180517bffffffffffffffffffffffffffffffffffffffffffffffffffffffff8381831617835250505050612483565b5050565b60007f01ffc9a7000000000000000000000000000000000000000000000000000000007bffffffffffffffffffffffffffffffffffffffffffffffffffffffff1916827bffffffffffffffffffffffffffffffffffffffffffffffffffffffff1916149050919050565b60008073ffffffffffffffffffffffffffffffffffffffff166002600084815260200190815260200160002060009054906101000a900473ffffffffffffffffffffffffffffffffffffffff1673ffffffffffffffffffffffffffffffffffffffff1614159050919050565b600033905090565b816004600083815260200190815260200160002060006101000a81548173ffffffffffffffffffffffffffffffffffffffff021916908373ffffffffffffffffffffffffffffffffffffffff160217905550808273ffffffffffffffffffffffffffffffffffffffff1661186b83610c97565b73ffffffffffffffffffffffffffffffffffffffff167f8c5be1e5ebec7d5bd14f71427d1e84f3dd0314c0f7b2291e5b200ac8c7c3b92560405160405180910390a45050565b60006118bc82611784565b6118fb576040517f08c379a00000000000000000000000000000000000000000000000000000000081526004016118f290614042565b60405180910390fd5b600061190683610c97565b90508073ffffffffffffffffffffffffffffffffffffffff168473ffffffffffffffffffffffffffffffffffffffff16148061197557508373ffffffffffffffffffffffffffffffffffffffff1661195d846106fa565b73ffffffffffffffffffffffffffffffffffffffff16145b806119865750611985818561121f565b5b91505092915050565b8273ffffffffffffffffffffffffffffffffffffffff166119af82610c97565b73ffffffffffffffffffffffffffffffffffffffff1614611a05576040517f08c379a00000000000000000000000000000000000000000000000000000000081526004016119fc906140d4565b60405180910390fd5b600073ffffffffffffffffffffffffffffffffffffffff168273ffffffffffffffffffffffffffffffffffffffff161415611a75576040517f08c379a0000000000000000000000000000000000000000000000000000000008152600401611a6c90614166565b60405180910390fd5b611a808383836124ac565b611a8b6000826117f8565b6001600360008573ffffffffffffffffffffffffffffffffffffffff1673ffffffffffffffffffffffffffffffffffffffff1681526020019081526020016000206000828254611adb91906141b5565b925050819055506001600360008473ffffffffffffffffffffffffffffffffffffffff1673ffffffffffffffffffffffffffffffffffffffff1681526020019081526020016000206000828254611b3291906141e9565b92505081905550816002600083815260200190815260200160002060006101000a81548173ffffffffffffffffffffffffffffffffffffffff021916908373ffffffffffffffffffffffffffffffffffffffff160217905550808273ffffffffffffffffffffffffffffffffffffffff168473ffffffffffffffffffffffffffffffffffffffff167fddf252ad1be2c89b69c2b068fc378daa952ba7f163c4a11628f55a4df523b3ef60405160405180910390a4611bf18383836124b1565b505050565b8173ffffffffffffffffffffffffffffffffffffffff168373ffffffffffffffffffffffffffffffffffffffff161415611c65576040517f08c379a0000000000000000000000000000000000000000000000000000000008152600401611c5c9061428b565b60405180910390fd5b80600560008573ffffffffffffffffffffffffffffffffffffffff1673ffffffffffffffffffffffffffffffffffffffff16815260200190815260200160002060008473ffffffffffffffffffffffffffffffffffffffff1673ffffffffffffffffffffffffffffffffffffffff16815260200190815260200160002060006101000a81548160ff0219169083151502179055508173ffffffffffffffffffffffffffffffffffffffff168373ffffffffffffffffffffffffffffffffffffffff167f17307eab39ab6107e8899845ad3d59bd9653f200f220920489ca2b5937696c3183604051611d569190612a07565b60405180910390a3505050565b611d6e84848461198f565b611d7a848484846124b6565b611db9576040517f08c379a0000000000000000000000000000000000000000000000000000000008152600401611db09061431d565b60405180910390fd5b50505050565b606060405180602001604052806000815250905090565b6060611de182611784565b611e20576040517f08c379a0000000000000000000000000000000000000000000000000000000008152600401611e17906143af565b60405180910390fd5b6000611e2a611dbf565b90506000815111611e4a5760405180602001604052806000815250611e75565b80611e5484612040565b604051602001611e6592919061370d565b6040516020818303038152906040525b915050919050565b600081600001549050919050565b60008060008084519050600092505b80821015612035576000858381518110611eb757611eb66143cf565b5b602001015160f81c60f81b9050608060f81b817effffffffffffffffffffffffffffffffffffffffffffffffffffffffffffff19161015611f0657600183611eff91906141e9565b9250612021565b60e060f81b817effffffffffffffffffffffffffffffffffffffffffffffffffffffffffffff19161015611f4857600283611f4191906141e9565b9250612020565b60f060f81b817effffffffffffffffffffffffffffffffffffffffffffffffffffffffffffff19161015611f8a57600383611f8391906141e9565b925061201f565b60f8801b817effffffffffffffffffffffffffffffffffffffffffffffffffffffffffffff19161015611fcb57600483611fc491906141e9565b925061201e565b60fc60f81b817effffffffffffffffffffffffffffffffffffffffffffffffffffffffffffff1916101561200d5760058361200691906141e9565b925061201d565b60068361201a91906141e9565b92505b5b5b5b5b50828061202d906143fe565b935050611e9a565b829350505050919050565b60606000821415612088576040518060400160405280600181526020017f3000000000000000000000000000000000000000000000000000000000000000815250905061219c565b600082905060005b600082146120ba5780806120a3906143fe565b915050600a826120b39190614476565b9150612090565b60008167ffffffffffffffff8111156120d6576120d5612dc2565b5b6040519080825280601f01601f1916602001820160405280156121085781602001600182028036833780820191505090505b5090505b600085146121955760018261212191906141b5565b9150600a8561213091906144a7565b603061213c91906141e9565b60f81b818381518110612152576121516143cf565b5b60200101907effffffffffffffffffffffffffffffffffffffffffffffffffffffffffffff1916908160001a905350600a8561218e9190614476565b945061210c565b8093505050505b919050565b61223d848484846040516024016121bb94939291906144d8565b6040516020818303038152906040527f9fd009f5000000000000000000000000000000000000000000000000000000007bffffffffffffffffffffffffffffffffffffffffffffffffffffffff19166020820180517bffffffffffffffffffffffffffffffffffffffffffffffffffffffff8381831617835250505050612483565b50505050565b6060600082519050600081141561226c57604051806020016040528060008152509150506123d6565b6000600360028361227d91906141e9565b6122879190614476565b60046122939190614532565b905060006020826122a491906141e9565b67ffffffffffffffff8111156122bd576122bc612dc2565b5b6040519080825280601f01601f1916602001820160405280156122ef5781602001600182028036833780820191505090505b509050600060405180606001604052806040815260200161480b604091399050600181016020830160005b868110156123935760038101905062ffffff818a015116603f8160121c168401518060081b905060ff603f83600c1c1686015116810190508060081b905060ff603f8360061c1686015116810190508060081b905060ff603f831686015116810190508060e01b9050808452600484019350505061231a565b5060038606600181146123ad57600281146123bd576123c8565b613d3d60f01b60028303526123c8565b603d60f81b60018303525b508484525050819450505050505b919050565b6123f582826040518060200160405280600081525061263e565b5050565b61240282611784565b612441576040517f08c379a0000000000000000000000000000000000000000000000000000000008152600401612438906145fe565b60405180910390fd5b806006600084815260200190815260200160002090805190602001906124689291906128b0565b505050565b6001816000016000828254019250508190555050565b60008151905060006a636f6e736f6c652e6c6f679050602083016000808483855afa5050505050565b505050565b505050565b60006124d78473ffffffffffffffffffffffffffffffffffffffff16612699565b15612631578373ffffffffffffffffffffffffffffffffffffffff1663150b7a026125006117f0565b8786866040518563ffffffff1660e01b81526004016125229493929190614673565b6020604051808303816000875af192505050801561255e57506040513d601f19601f8201168201806040525081019061255b91906146d4565b60015b6125e1573d806000811461258e576040519150601f19603f3d011682016040523d82523d6000602084013e612593565b606091505b506000815114156125d9576040517f08c379a00000000000000000000000000000000000000000000000000000000081526004016125d09061431d565b60405180910390fd5b805181602001fd5b63150b7a0260e01b7bffffffffffffffffffffffffffffffffffffffffffffffffffffffff1916817bffffffffffffffffffffffffffffffffffffffffffffffffffffffff191614915050612636565b600190505b949350505050565b61264883836126bc565b61265560008484846124b6565b612694576040517f08c379a000000000000000000000000000000000000000000000000000000000815260040161268b9061431d565b60405180910390fd5b505050565b6000808273ffffffffffffffffffffffffffffffffffffffff163b119050919050565b600073ffffffffffffffffffffffffffffffffffffffff168273ffffffffffffffffffffffffffffffffffffffff16141561272c576040517f08c379a00000000000000000000000000000000000000000000000000000000081526004016127239061474d565b60405180910390fd5b61273581611784565b15612775576040517f08c379a000000000000000000000000000000000000000000000000000000000815260040161276c906147b9565b60405180910390fd5b612781600083836124ac565b6001600360008473ffffffffffffffffffffffffffffffffffffffff1673ffffffffffffffffffffffffffffffffffffffff16815260200190815260200160002060008282546127d191906141e9565b92505081905550816002600083815260200190815260200160002060006101000a81548173ffffffffffffffffffffffffffffffffffffffff021916908373ffffffffffffffffffffffffffffffffffffffff160217905550808273ffffffffffffffffffffffffffffffffffffffff16600073ffffffffffffffffffffffffffffffffffffffff167fddf252ad1be2c89b69c2b068fc378daa952ba7f163c4a11628f55a4df523b3ef60405160405180910390a4612892600083836124b1565b5050565b604051806040016040528060608152602001606081525090565b8280546128bc90613263565b90600052602060002090601f0160209004810192826128de5760008555612925565b82601f106128f757805160ff1916838001178555612925565b82800160010185558215612925579182015b82811115612924578251825591602001919060010190612909565b5b5090506129329190612936565b5090565b5b8082111561294f576000816000905550600101612937565b5090565b6000604051905090565b600080fd5b600080fd5b60007fffffffff0000000000000000000000000000000000000000000000000000000082169050919050565b61299c81612967565b81146129a757600080fd5b50565b6000813590506129b981612993565b92915050565b6000602082840312156129d5576129d461295d565b5b60006129e3848285016129aa565b91505092915050565b60008115159050919050565b612a01816129ec565b82525050565b6000602082019050612a1c60008301846129f8565b92915050565b600081519050919050565b600082825260208201905092915050565b60005b83811015612a5c578082015181840152602081019050612a41565b83811115612a6b576000848401525b50505050565b6000601f19601f8301169050919050565b6000612a8d82612a22565b612a978185612a2d565b9350612aa7818560208601612a3e565b612ab081612a71565b840191505092915050565b60006020820190508181036000830152612ad58184612a82565b905092915050565b6000819050919050565b612af081612add565b8114612afb57600080fd5b50565b600081359050612b0d81612ae7565b92915050565b600060208284031215612b2957612b2861295d565b5b6000612b3784828501612afe565b91505092915050565b600073ffffffffffffffffffffffffffffffffffffffff82169050919050565b6000612b6b82612b40565b9050919050565b612b7b81612b60565b82525050565b6000602082019050612b966000830184612b72565b92915050565b612ba581612b60565b8114612bb057600080fd5b50565b600081359050612bc281612b9c565b92915050565b60008060408385031215612bdf57612bde61295d565b5b6000612bed85828601612bb3565b9250506020612bfe85828601612afe565b9150509250929050565b600080fd5b600080fd5b600080fd5b60008083601f840112612c2d57612c2c612c08565b5b8235905067ffffffffffffffff811115612c4a57612c49612c0d565b5b602083019150836001820283011115612c6657612c65612c12565b5b9250929050565b60008060208385031215612c8457612c8361295d565b5b600083013567ffffffffffffffff811115612ca257612ca1612962565b5b612cae85828601612c17565b92509250509250929050565b600082825260208201905092915050565b6000612cd682612a22565b612ce08185612cba565b9350612cf0818560208601612a3e565b612cf981612a71565b840191505092915050565b60006040830160008301518482036000860152612d218282612ccb565b91505060208301518482036020860152612d3b8282612ccb565b9150508091505092915050565b60006020820190508181036000830152612d628184612d04565b905092915050565b600080600060608486031215612d8357612d8261295d565b5b6000612d9186828701612bb3565b9350506020612da286828701612bb3565b9250506040612db386828701612afe565b9150509250925092565b600080fd5b7f4e487b7100000000000000000000000000000000000000000000000000000000600052604160045260246000fd5b612dfa82612a71565b810181811067ffffffffffffffff82111715612e1957612e18612dc2565b5b80604052505050565b6000612e2c612953565b9050612e388282612df1565b919050565b600067ffffffffffffffff821115612e5857612e57612dc2565b5b612e6182612a71565b9050602081019050919050565b82818337600083830152505050565b6000612e90612e8b84612e3d565b612e22565b905082815260208101848484011115612eac57612eab612dbd565b5b612eb7848285612e6e565b509392505050565b600082601f830112612ed457612ed3612c08565b5b8135612ee4848260208601612e7d565b91505092915050565b600060208284031215612f0357612f0261295d565b5b600082013567ffffffffffffffff811115612f2157612f20612962565b5b612f2d84828501612ebf565b91505092915050565b60006040820190508181036000830152612f508185612a82565b90508181036020830152612f648184612a82565b90509392505050565b600060208284031215612f8357612f8261295d565b5b6000612f9184828501612bb3565b91505092915050565b612fa381612add565b82525050565b6000602082019050612fbe6000830184612f9a565b92915050565b612fcd816129ec565b8114612fd857600080fd5b50565b600081359050612fea81612fc4565b92915050565b600080604083850312156130075761300661295d565b5b600061301585828601612bb3565b925050602061302685828601612fdb565b9150509250929050565b600067ffffffffffffffff82111561304b5761304a612dc2565b5b61305482612a71565b9050602081019050919050565b600061307461306f84613030565b612e22565b9050828152602081018484840111156130905761308f612dbd565b5b61309b848285612e6e565b509392505050565b600082601f8301126130b8576130b7612c08565b5b81356130c8848260208601613061565b91505092915050565b600080600080608085870312156130eb576130ea61295d565b5b60006130f987828801612bb3565b945050602061310a87828801612bb3565b935050604061311b87828801612afe565b925050606085013567ffffffffffffffff81111561313c5761313b612962565b5b613148878288016130a3565b91505092959194509250565b600080fd5b60006040828403121561316f5761316e613154565b5b81905092915050565b6000806000604084860312156131915761319061295d565b5b600084013567ffffffffffffffff8111156131af576131ae612962565b5b6131bb86828701612c17565b9350935050602084013567ffffffffffffffff8111156131de576131dd612962565b5b6131ea86828701613159565b9150509250925092565b6000806040838503121561320b5761320a61295d565b5b600061321985828601612bb3565b925050602061322a85828601612bb3565b9150509250929050565b7f4e487b7100000000000000000000000000000000000000000000000000000000600052602260045260246000fd5b6000600282049050600182168061327b57607f821691505b6020821081141561328f5761328e613234565b5b50919050565b7f4552433732313a20617070726f76656420717565727920666f72206e6f6e657860008201527f697374656e7420746f6b656e0000000000000000000000000000000000000000602082015250565b60006132f1602c83612a2d565b91506132fc82613295565b604082019050919050565b60006020820190508181036000830152613320816132e4565b9050919050565b7f4552433732313a20617070726f76616c20746f2063757272656e74206f776e6560008201527f7200000000000000000000000000000000000000000000000000000000000000602082015250565b6000613383602183612a2d565b915061338e82613327565b604082019050919050565b600060208201905081810360008301526133b281613376565b9050919050565b7f4552433732313a20617070726f76652063616c6c6572206973206e6f74206f7760008201527f6e6572206e6f7220617070726f76656420666f7220616c6c0000000000000000602082015250565b6000613415603883612a2d565b9150613420826133b9565b604082019050919050565b6000602082019050818103600083015261344481613408565b9050919050565b600081905092915050565b6000613462838561344b565b935061346f838584612e6e565b82840190509392505050565b6000613488828486613456565b91508190509392505050565b7f4552433732313a207472616e736665722063616c6c6572206973206e6f74206f60008201527f776e6572206e6f7220617070726f766564000000000000000000000000000000602082015250565b60006134f0603183612a2d565b91506134fb82613494565b604082019050919050565b6000602082019050818103600083015261351f816134e3565b9050919050565b7f4552433732313a206f776e657220717565727920666f72206e6f6e657869737460008201527f656e7420746f6b656e0000000000000000000000000000000000000000000000602082015250565b6000613582602983612a2d565b915061358d82613526565b604082019050919050565b600060208201905081810360008301526135b181613575565b9050919050565b7f4552433732313a2062616c616e636520717565727920666f7220746865207a6560008201527f726f206164647265737300000000000000000000000000000000000000000000602082015250565b6000613614602a83612a2d565b915061361f826135b8565b604082019050919050565b6000602082019050818103600083015261364381613607565b9050919050565b7f45524337323155524953746f726167653a2055524920717565727920666f722060008201527f6e6f6e6578697374656e7420746f6b656e000000000000000000000000000000602082015250565b60006136a6603183612a2d565b91506136b18261364a565b604082019050919050565b600060208201905081810360008301526136d581613699565b9050919050565b60006136e782612a22565b6136f1818561344b565b9350613701818560208601612a3e565b80840191505092915050565b600061371982856136dc565b915061372582846136dc565b91508190509392505050565b7f4f6e6c792074686520646f6d61696e206f776e65722063616e2073657420697460008201527f73207265636f7264000000000000000000000000000000000000000000000000602082015250565b600061378d602883612a2d565b915061379882613731565b604082019050919050565b600060208201905081810360008301526137bc81613780565b9050919050565b600080fd5b600080fd5b600080fd5b600080833560016020038436030381126137ef576137ee6137c3565b5b80840192508235915067ffffffffffffffff821115613811576138106137c8565b5b60208301925060018202360383131561382d5761382c6137cd565b5b509250929050565b600082905092915050565b60008190508160005260206000209050919050565b60006020601f8301049050919050565b600082821b905092915050565b6000600883026138a27fffffffffffffffffffffffffffffffffffffffffffffffffffffffffffffffff82613865565b6138ac8683613865565b95508019841693508086168417925050509392505050565b6000819050919050565b60006138e96138e46138df84612add565b6138c4565b612add565b9050919050565b6000819050919050565b613903836138ce565b61391761390f826138f0565b848454613872565b825550505050565b600090565b61392c61391f565b6139378184846138fa565b505050565b5b8181101561395b57613950600082613924565b60018101905061393d565b5050565b601f8211156139a05761397181613840565b61397a84613855565b81016020851015613989578190505b61399d61399585613855565b83018261393c565b50505b505050565b600082821c905092915050565b60006139c3600019846008026139a5565b1980831691505092915050565b60006139dc83836139b2565b9150826002028217905092915050565b6139f68383613835565b67ffffffffffffffff811115613a0f57613a0e612dc2565b5b613a198254613263565b613a2482828561395f565b6000601f831160018114613a535760008415613a41578287013590505b613a4b85826139d0565b865550613ab3565b601f198416613a6186613840565b60005b82811015613a8957848901358255600182019150602085019450602081019050613a64565b86831015613aa65784890135613aa2601f8916826139b2565b8355505b6001600288020188555050505b50505050505050565b613ac78383836139ec565b505050565b6000810160008301613ade81856137d2565b613ae9818386613abc565b505050506001810160208301613aff81856137d2565b613b0a818386613abc565b505050505050565b613b1c8282613acc565b5050565b7f446f6d61696e20616c7265616479207265676973746572656400000000000000600082015250565b6000613b56601983612a2d565b9150613b6182613b20565b602082019050919050565b60006020820190508181036000830152613b8581613b49565b9050919050565b7f4e6f7420656e6f756768204d6174696320706169640000000000000000000000600082015250565b6000613bc2601583612a2d565b9150613bcd82613b8c565b602082019050919050565b60006020820190508181036000830152613bf181613bb5565b9050919050565b7f2e00000000000000000000000000000000000000000000000000000000000000600082015250565b6000613c2e60018361344b565b9150613c3982613bf8565b600182019050919050565b60008154613c5181613263565b613c5b818661344b565b94506001821660008114613c765760018114613c8757613cba565b60ff19831686528186019350613cba565b613c9085613840565b60005b83811015613cb257815481890152600182019150602081019050613c93565b838801955050505b50505092915050565b6000613cd0828587613456565b9150613cdb82613c21565b9150613ce78284613c44565b9150819050949350505050565b6000613d008286613c44565b9150613d0c82856136dc565b9150613d188284613c44565b9150819050949350505050565b7f7b226e616d65223a202200000000000000000000000000000000000000000000600082015250565b6000613d5b600a8361344b565b9150613d6682613d25565b600a82019050919050565b7f222c20226465736372697074696f6e223a20224120646f6d61696e206f6e207460008201527f6865200000000000000000000000000000000000000000000000000000000000602082015250565b6000613dcd60238361344b565b9150613dd882613d71565b602382019050919050565b7f222c2022696d616765223a2022646174613a696d6167652f7376672b786d6c3b60008201527f6261736536342c00000000000000000000000000000000000000000000000000602082015250565b6000613e3f60278361344b565b9150613e4a82613de3565b602782019050919050565b7f222c226c656e677468223a220000000000000000000000000000000000000000600082015250565b6000613e8b600c8361344b565b9150613e9682613e55565b600c82019050919050565b7f227d000000000000000000000000000000000000000000000000000000000000600082015250565b6000613ed760028361344b565b9150613ee282613ea1565b600282019050919050565b6000613ef882613d4e565b9150613f0482876136dc565b9150613f0f82613dc0565b9150613f1b8286613c44565b9150613f2682613e32565b9150613f3282856136dc565b9150613f3d82613e7e565b9150613f4982846136dc565b9150613f5482613eca565b915081905095945050505050565b7f646174613a6170706c69636174696f6e2f6a736f6e3b6261736536342c000000600082015250565b6000613f98601d8361344b565b9150613fa382613f62565b601d82019050919050565b6000613fb982613f8b565b9150613fc582846136dc565b915081905092915050565b7f4552433732313a206f70657261746f7220717565727920666f72206e6f6e657860008201527f697374656e7420746f6b656e0000000000000000000000000000000000000000602082015250565b600061402c602c83612a2d565b915061403782613fd0565b604082019050919050565b6000602082019050818103600083015261405b8161401f565b9050919050565b7f4552433732313a207472616e736665722066726f6d20696e636f72726563742060008201527f6f776e6572000000000000000000000000000000000000000000000000000000602082015250565b60006140be602583612a2d565b91506140c982614062565b604082019050919050565b600060208201905081810360008301526140ed816140b1565b9050919050565b7f4552433732313a207472616e7366657220746f20746865207a65726f2061646460008201527f7265737300000000000000000000000000000000000000000000000000000000602082015250565b6000614150602483612a2d565b915061415b826140f4565b604082019050919050565b6000602082019050818103600083015261417f81614143565b9050919050565b7f4e487b7100000000000000000000000000000000000000000000000000000000600052601160045260246000fd5b60006141c082612add565b91506141cb83612add565b9250828210156141de576141dd614186565b5b828203905092915050565b60006141f482612add565b91506141ff83612add565b9250827fffffffffffffffffffffffffffffffffffffffffffffffffffffffffffffffff0382111561423457614233614186565b5b828201905092915050565b7f4552433732313a20617070726f766520746f2063616c6c657200000000000000600082015250565b6000614275601983612a2d565b91506142808261423f565b602082019050919050565b600060208201905081810360008301526142a481614268565b9050919050565b7f4552433732313a207472616e7366657220746f206e6f6e20455243373231526560008201527f63656976657220696d706c656d656e7465720000000000000000000000000000602082015250565b6000614307603283612a2d565b9150614312826142ab565b604082019050919050565b60006020820190508181036000830152614336816142fa565b9050919050565b7f4552433732314d657461646174613a2055524920717565727920666f72206e6f60008201527f6e6578697374656e7420746f6b656e0000000000000000000000000000000000602082015250565b6000614399602f83612a2d565b91506143a48261433d565b604082019050919050565b600060208201905081810360008301526143c88161438c565b9050919050565b7f4e487b7100000000000000000000000000000000000000000000000000000000600052603260045260246000fd5b600061440982612add565b91507fffffffffffffffffffffffffffffffffffffffffffffffffffffffffffffffff82141561443c5761443b614186565b5b600182019050919050565b7f4e487b7100000000000000000000000000000000000000000000000000000000600052601260045260246000fd5b600061448182612add565b915061448c83612add565b92508261449c5761449b614447565b5b828204905092915050565b60006144b282612add565b91506144bd83612add565b9250826144cd576144cc614447565b5b828206905092915050565b600060808201905081810360008301526144f28187612a82565b905081810360208301526145068186612a82565b9050818103604083015261451a8185612a82565b90506145296060830184612f9a565b95945050505050565b600061453d82612add565b915061454883612add565b9250817fffffffffffffffffffffffffffffffffffffffffffffffffffffffffffffffff048311821515161561458157614580614186565b5b828202905092915050565b7f45524337323155524953746f726167653a2055524920736574206f66206e6f6e60008201527f6578697374656e7420746f6b656e000000000000000000000000000000000000602082015250565b60006145e8602e83612a2d565b91506145f38261458c565b604082019050919050565b60006020820190508181036000830152614617816145db565b9050919050565b600081519050919050565b600082825260208201905092915050565b60006146458261461e565b61464f8185614629565b935061465f818560208601612a3e565b61466881612a71565b840191505092915050565b60006080820190506146886000830187612b72565b6146956020830186612b72565b6146a26040830185612f9a565b81810360608301526146b4818461463a565b905095945050505050565b6000815190506146ce81612993565b92915050565b6000602082840312156146ea576146e961295d565b5b60006146f8848285016146bf565b91505092915050565b7f4552433732313a206d696e7420746f20746865207a65726f2061646472657373600082015250565b6000614737602083612a2d565b915061474282614701565b602082019050919050565b600060208201905081810360008301526147668161472a565b9050919050565b7f4552433732313a20746f6b656e20616c7265616479206d696e74656400000000600082015250565b60006147a3601c83612a2d565b91506147ae8261476d565b602082019050919050565b600060208201905081810360008301526147d281614796565b905091905056fe5265676973746572696e672025732e2573206f6e2074686520636f6e7472616374207769746820746f6b656e49442025644142434445464748494a4b4c4d4e4f505152535455565758595a6162636465666768696a6b6c6d6e6f707172737475767778797a303132333435363738392b2fa2646970667358221220a9f74e7c0ef17f18616894f207a7b241ad41f6c7ef5c71e4e5d7de992cb0772164736f6c634300080a00333c73766720786d6c6e733d22687474703a2f2f7777772e77332e6f72672f323030302f737667222077696474683d2232373022206865696768743d22323730222066696c6c3d226e6f6e65223e3c706174682066696c6c3d2275726c282342292220643d224d302030683237307632373048307a222f3e3c646566733e3c66696c7465722069643d22412220636f6c6f722d696e746572706f6c6174696f6e2d66696c746572733d2273524742222066696c746572556e6974733d227573657253706163654f6e55736522206865696768743d22323730222077696474683d22323730223e3c666544726f70536861646f772064783d2230222064793d22312220737464446576696174696f6e3d22322220666c6f6f642d6f7061636974793d222e323235222077696474683d223230302522206865696768743d2232303025222f3e3c2f66696c7465723e3c2f646566733e3c7061746820643d224d37322e3836332034322e393439632d2e3636382d2e3338372d312e3432362d2e35392d322e3139372d2e3539732d312e3532392e3230342d322e3139372e35396c2d31302e30383120362e3033322d362e383520332e3933342d31302e30383120362e303332632d2e3636382e3338372d312e3432362e35392d322e3139372e3539732d312e3532392d2e3230342d322e3139372d2e35396c2d382e3031332d342e37323161342e353220342e35322030203020312d312e3538392d312e363136632d2e3338342d2e3636352d2e3539342d312e3431382d2e3630382d322e313837762d392e3331632d2e3031332d2e3737352e3138352d312e3533382e3537322d322e32303861342e323520342e323520302030203120312e3632352d312e3539356c372e3838342d342e3539632e3636382d2e33383720312e3432362d2e353920322e3139372d2e353973312e3532392e32303420322e3139372e35396c372e38383420342e353961342e353220342e353220302030203120312e35383920312e363136632e3338342e3636352e35393420312e3431382e36303820322e31383776362e3033326c362e38352d342e303635762d362e303332632e3031332d2e3737352d2e3138352d312e3533382d2e3537322d322e32303861342e323520342e32352030203020302d312e3632352d312e3539354c34312e3435362032342e3539632d2e3636382d2e3338372d312e3432362d2e35392d322e3139372d2e3539732d312e3532392e3230342d322e3139372e35396c2d31342e38363420382e36353561342e323520342e32352030203020302d312e36323520312e353935632d2e3338372e36372d2e35383520312e3433342d2e35373220322e3230387631372e343431632d2e3031332e3737352e31383520312e3533382e35373220322e32303861342e323520342e323520302030203020312e36323520312e3539356c31342e38363420382e363535632e3636382e33383720312e3432362e353920322e3139372e353973312e3532392d2e32303420322e3139372d2e35396c31302e3038312d352e39303120362e38352d342e3036352031302e3038312d352e393031632e3636382d2e33383720312e3432362d2e353920322e3139372d2e353973312e3532392e32303420322e3139372e35396c372e38383420342e353961342e353220342e353220302030203120312e35383920312e363136632e3338342e3636352e35393420312e3431382e36303820322e31383776392e333131632e3031332e3737352d2e31383520312e3533382d2e35373220322e32303861342e323520342e32352030203020312d312e36323520312e3539356c2d372e38383420342e373231632d2e3636382e3338372d312e3432362e35392d322e3139372e3539732d312e3532392d2e3230342d322e3139372d2e35396c2d372e3838342d342e353961342e353220342e35322030203020312d312e3538392d312e363136632d2e3338352d2e3636352d2e3539342d312e3431382d2e3630382d322e313837762d362e3033326c2d362e383520342e30363576362e303332632d2e3031332e3737352e31383520312e3533382e35373220322e32303861342e323520342e323520302030203020312e36323520312e3539356c31342e38363420382e363535632e3636382e33383720312e3432362e353920322e3139372e353973312e3532392d2e32303420322e3139372d2e35396c31342e3836342d382e363535632e3635372d2e33393420312e3230342d2e393520312e3538392d312e363136732e3539342d312e3431382e3630392d322e3138375635352e353338632e3031332d2e3737352d2e3138352d312e3533382d2e3537322d322e32303861342e323520342e32352030203020302d312e3632352d312e3539356c2d31342e3939332d382e3738367a222066696c6c3d2223666666222f3e3c646566733e3c6c696e6561724772616469656e742069643d2242222078313d2230222079313d2230222078323d22323730222079323d2232373022206772616469656e74556e6974733d227573657253706163654f6e557365223e3c73746f702073746f702d636f6c6f723d2223636235656565222f3e3c73746f70206f66667365743d2231222073746f702d636f6c6f723d2223306364376534222073746f702d6f7061636974793d222e3939222f3e3c2f6c696e6561724772616469656e743e3c2f646566733e3c7465787420783d2233322e352220793d223233312220666f6e742d73697a653d223237222066696c6c3d2223666666222066696c7465723d2275726c282341292220666f6e742d66616d696c793d22506c7573204a616b617274612053616e732c44656a6156752053616e732c4e6f746f20436f6c6f7220456d6f6a692c4170706c6520436f6c6f7220456d6f6a692c73616e732d73657269662220666f6e742d7765696768743d22626f6c64223e",
  "linkReferences": {},
  "deployedLinkReferences": {}
}