{
  "_format": "hh-sol-artifact-1",
  "contractName": "Domains",
  "sourceName": "contracts/Domains.sol",
  "abi": [
    {
      "inputs": [
        {
          "internalType": "string",
          "name": "_tokenName",
          "type": "string"
        },
        {
          "internalType": "string",
          "name": "_tokenSymbol",
          "type": "string"
        },
        {
          "internalType": "string",
          "name": "_tld",
          "type": "string"
        },
        {
          "internalType": "uint256",
          "name": "_price",
          "type": "uint256"
        }
      ],
      "stateMutability": "payable",
      "type": "constructor"
    },
    {
      "inputs": [],
      "name": "AlreadyRegistered",
      "type": "error"
    },
    {
      "inputs": [],
      "name": "NotEnoughMaticPaid",
      "type": "error"
    },
    {
      "inputs": [],
      "name": "NotOwner",
      "type": "error"
    },
    {
      "inputs": [],
      "name": "Unathorized",
      "type": "error"
    },
    {
      "inputs": [],
      "name": "WithdrawalFailed",
      "type": "error"
    },
    {
      "anonymous": false,
      "inputs": [
        {
          "indexed": true,
          "internalType": "address",
          "name": "owner",
          "type": "address"
        },
        {
          "indexed": true,
          "internalType": "address",
          "name": "approved",
          "type": "address"
        },
        {
          "indexed": true,
          "internalType": "uint256",
          "name": "tokenId",
          "type": "uint256"
        }
      ],
      "name": "Approval",
      "type": "event"
    },
    {
      "anonymous": false,
      "inputs": [
        {
          "indexed": true,
          "internalType": "address",
          "name": "owner",
          "type": "address"
        },
        {
          "indexed": true,
          "internalType": "address",
          "name": "operator",
          "type": "address"
        },
        {
          "indexed": false,
          "internalType": "bool",
          "name": "approved",
          "type": "bool"
        }
      ],
      "name": "ApprovalForAll",
      "type": "event"
    },
    {
      "anonymous": false,
      "inputs": [
        {
          "indexed": true,
          "internalType": "address",
          "name": "previousOwner",
          "type": "address"
        },
        {
          "indexed": true,
          "internalType": "address",
          "name": "newOwner",
          "type": "address"
        }
      ],
      "name": "OwnerChanged",
      "type": "event"
    },
    {
      "anonymous": false,
      "inputs": [
        {
          "indexed": true,
          "internalType": "address",
          "name": "from",
          "type": "address"
        },
        {
          "indexed": true,
          "internalType": "address",
          "name": "to",
          "type": "address"
        },
        {
          "indexed": true,
          "internalType": "uint256",
          "name": "tokenId",
          "type": "uint256"
        }
      ],
      "name": "Transfer",
      "type": "event"
    },
    {
      "inputs": [
        {
          "internalType": "address",
          "name": "to",
          "type": "address"
        },
        {
          "internalType": "uint256",
          "name": "tokenId",
          "type": "uint256"
        }
      ],
      "name": "approve",
      "outputs": [],
      "stateMutability": "nonpayable",
      "type": "function"
    },
    {
      "inputs": [
        {
          "internalType": "address",
          "name": "owner",
          "type": "address"
        }
      ],
      "name": "balanceOf",
      "outputs": [
        {
          "internalType": "uint256",
          "name": "",
          "type": "uint256"
        }
      ],
      "stateMutability": "view",
      "type": "function"
    },
    {
      "inputs": [
        {
          "internalType": "string",
          "name": "",
          "type": "string"
        }
      ],
      "name": "domains",
      "outputs": [
        {
          "internalType": "address",
          "name": "",
          "type": "address"
        }
      ],
      "stateMutability": "view",
      "type": "function"
    },
    {
      "inputs": [
        {
          "internalType": "string",
          "name": "name",
          "type": "string"
        }
      ],
      "name": "getAddress",
      "outputs": [
        {
          "internalType": "address",
          "name": "",
          "type": "address"
        }
      ],
      "stateMutability": "view",
      "type": "function"
    },
    {
      "inputs": [],
      "name": "getAllNames",
      "outputs": [
        {
          "internalType": "string[]",
          "name": "",
          "type": "string[]"
        }
      ],
      "stateMutability": "view",
      "type": "function"
    },
    {
      "inputs": [
        {
          "internalType": "uint256",
          "name": "tokenId",
          "type": "uint256"
        }
      ],
      "name": "getApproved",
      "outputs": [
        {
          "internalType": "address",
          "name": "",
          "type": "address"
        }
      ],
      "stateMutability": "view",
      "type": "function"
    },
    {
      "inputs": [
        {
          "internalType": "string",
          "name": "name",
          "type": "string"
        }
      ],
      "name": "getRecord",
      "outputs": [
        {
          "components": [
            {
              "internalType": "string",
              "name": "twitter",
              "type": "string"
            },
            {
              "internalType": "string",
              "name": "discord",
              "type": "string"
            }
          ],
          "internalType": "struct Domains.Record",
          "name": "",
          "type": "tuple"
        }
      ],
      "stateMutability": "view",
      "type": "function"
    },
    {
      "inputs": [
        {
          "internalType": "address",
          "name": "owner",
          "type": "address"
        },
        {
          "internalType": "address",
          "name": "operator",
          "type": "address"
        }
      ],
      "name": "isApprovedForAll",
      "outputs": [
        {
          "internalType": "bool",
          "name": "",
          "type": "bool"
        }
      ],
      "stateMutability": "view",
      "type": "function"
    },
    {
      "inputs": [],
      "name": "name",
      "outputs": [
        {
          "internalType": "string",
          "name": "",
          "type": "string"
        }
      ],
      "stateMutability": "view",
      "type": "function"
    },
    {
      "inputs": [
        {
          "internalType": "uint256",
          "name": "",
          "type": "uint256"
        }
      ],
      "name": "names",
      "outputs": [
        {
          "internalType": "string",
          "name": "",
          "type": "string"
        }
      ],
      "stateMutability": "view",
      "type": "function"
    },
    {
      "inputs": [],
      "name": "owner",
      "outputs": [
        {
          "internalType": "address payable",
          "name": "",
          "type": "address"
        }
      ],
      "stateMutability": "view",
      "type": "function"
    },
    {
      "inputs": [
        {
          "internalType": "uint256",
          "name": "tokenId",
          "type": "uint256"
        }
      ],
      "name": "ownerOf",
      "outputs": [
        {
          "internalType": "address",
          "name": "",
          "type": "address"
        }
      ],
      "stateMutability": "view",
      "type": "function"
    },
    {
      "inputs": [],
      "name": "price",
      "outputs": [
        {
          "internalType": "uint256",
          "name": "",
          "type": "uint256"
        }
      ],
      "stateMutability": "view",
      "type": "function"
    },
    {
      "inputs": [
        {
          "internalType": "string",
          "name": "",
          "type": "string"
        }
      ],
      "name": "records",
      "outputs": [
        {
          "internalType": "string",
          "name": "twitter",
          "type": "string"
        },
        {
          "internalType": "string",
          "name": "discord",
          "type": "string"
        }
      ],
      "stateMutability": "view",
      "type": "function"
    },
    {
      "inputs": [
        {
          "internalType": "string",
          "name": "name",
          "type": "string"
        }
      ],
      "name": "register",
      "outputs": [],
      "stateMutability": "payable",
      "type": "function"
    },
    {
      "inputs": [
        {
          "internalType": "address",
          "name": "from",
          "type": "address"
        },
        {
          "internalType": "address",
          "name": "to",
          "type": "address"
        },
        {
          "internalType": "uint256",
          "name": "tokenId",
          "type": "uint256"
        }
      ],
      "name": "safeTransferFrom",
      "outputs": [],
      "stateMutability": "nonpayable",
      "type": "function"
    },
    {
      "inputs": [
        {
          "internalType": "address",
          "name": "from",
          "type": "address"
        },
        {
          "internalType": "address",
          "name": "to",
          "type": "address"
        },
        {
          "internalType": "uint256",
          "name": "tokenId",
          "type": "uint256"
        },
        {
          "internalType": "bytes",
          "name": "_data",
          "type": "bytes"
        }
      ],
      "name": "safeTransferFrom",
      "outputs": [],
      "stateMutability": "nonpayable",
      "type": "function"
    },
    {
      "inputs": [
        {
          "internalType": "address",
          "name": "operator",
          "type": "address"
        },
        {
          "internalType": "bool",
          "name": "approved",
          "type": "bool"
        }
      ],
      "name": "setApprovalForAll",
      "outputs": [],
      "stateMutability": "nonpayable",
      "type": "function"
    },
    {
      "inputs": [
        {
          "internalType": "address",
          "name": "_owner",
          "type": "address"
        }
      ],
      "name": "setOwner",
      "outputs": [],
      "stateMutability": "nonpayable",
      "type": "function"
    },
    {
      "inputs": [
        {
          "internalType": "string",
          "name": "name",
          "type": "string"
        },
        {
          "components": [
            {
              "internalType": "string",
              "name": "twitter",
              "type": "string"
            },
            {
              "internalType": "string",
              "name": "discord",
              "type": "string"
            }
          ],
          "internalType": "struct Domains.Record",
          "name": "record",
          "type": "tuple"
        }
      ],
      "name": "setRecord",
      "outputs": [],
      "stateMutability": "nonpayable",
      "type": "function"
    },
    {
      "inputs": [
        {
          "internalType": "bytes4",
          "name": "interfaceId",
          "type": "bytes4"
        }
      ],
      "name": "supportsInterface",
      "outputs": [
        {
          "internalType": "bool",
          "name": "",
          "type": "bool"
        }
      ],
      "stateMutability": "view",
      "type": "function"
    },
    {
      "inputs": [],
      "name": "symbol",
      "outputs": [
        {
          "internalType": "string",
          "name": "",
          "type": "string"
        }
      ],
      "stateMutability": "view",
      "type": "function"
    },
    {
      "inputs": [],
      "name": "tld",
      "outputs": [
        {
          "internalType": "string",
          "name": "",
          "type": "string"
        }
      ],
      "stateMutability": "view",
      "type": "function"
    },
    {
      "inputs": [],
      "name": "tokenName",
      "outputs": [
        {
          "internalType": "string",
          "name": "",
          "type": "string"
        }
      ],
      "stateMutability": "view",
      "type": "function"
    },
    {
      "inputs": [
        {
          "internalType": "uint256",
          "name": "tokenId",
          "type": "uint256"
        }
      ],
      "name": "tokenURI",
      "outputs": [
        {
          "internalType": "string",
          "name": "",
          "type": "string"
        }
      ],
      "stateMutability": "view",
      "type": "function"
    },
    {
      "inputs": [
        {
          "internalType": "address",
          "name": "from",
          "type": "address"
        },
        {
          "internalType": "address",
          "name": "to",
          "type": "address"
        },
        {
          "internalType": "uint256",
          "name": "tokenId",
          "type": "uint256"
        }
      ],
      "name": "transferFrom",
      "outputs": [],
      "stateMutability": "nonpayable",
      "type": "function"
    },
    {
      "inputs": [],
      "name": "withdraw",
      "outputs": [],
      "stateMutability": "nonpayable",
      "type": "function"
    }
  ],
  "bytecode": "0x6080604052604051806108a0016040528061086b81526020016200557261086b9139600c90805190602001906200003892919062000283565b506040518060400160405280600d81526020017f3c2f746578743e3c2f7376673e00000000000000000000000000000000000000815250600d90805190602001906200008692919062000283565b5060405162005ddd38038062005ddd8339818101604052810190620000ac91906200050b565b3384848160009080519060200190620000c792919062000283565b508060019080519060200190620000e092919062000283565b50505080600760006101000a81548173ffffffffffffffffffffffffffffffffffffffff021916908373ffffffffffffffffffffffffffffffffffffffff1602179055505083600990805190602001906200013d92919062000283565b5081600a90805190602001906200015692919062000283565b5080600b81905550620001aa6040518060400160405280601881526020017f2573206e616d652073657276696365206465706c6f796564000000000000000081525083620001b460201b62001c071760201c565b50505050620006d7565b620002568282604051602401620001cd92919062000637565b6040516020818303038152906040527f4b5c4277000000000000000000000000000000000000000000000000000000007bffffffffffffffffffffffffffffffffffffffffffffffffffffffff19166020820180517bffffffffffffffffffffffffffffffffffffffffffffffffffffffff83818316178352505050506200025a60201b60201c565b5050565b60008151905060006a636f6e736f6c652e6c6f679050602083016000808483855afa5050505050565b8280546200029190620006a1565b90600052602060002090601f016020900481019282620002b5576000855562000301565b82601f10620002d057805160ff191683800117855562000301565b8280016001018555821562000301579182015b8281111562000300578251825591602001919060010190620002e3565b5b50905062000310919062000314565b5090565b5b808211156200032f57600081600090555060010162000315565b5090565b6000604051905090565b600080fd5b600080fd5b600080fd5b600080fd5b6000601f19601f8301169050919050565b7f4e487b7100000000000000000000000000000000000000000000000000000000600052604160045260246000fd5b6200039c8262000351565b810181811067ffffffffffffffff82111715620003be57620003bd62000362565b5b80604052505050565b6000620003d362000333565b9050620003e1828262000391565b919050565b600067ffffffffffffffff82111562000404576200040362000362565b5b6200040f8262000351565b9050602081019050919050565b60005b838110156200043c5780820151818401526020810190506200041f565b838111156200044c576000848401525b50505050565b6000620004696200046384620003e6565b620003c7565b9050828152602081018484840111156200048857620004876200034c565b5b620004958482856200041c565b509392505050565b600082601f830112620004b557620004b462000347565b5b8151620004c784826020860162000452565b91505092915050565b6000819050919050565b620004e581620004d0565b8114620004f157600080fd5b50565b6000815190506200050581620004da565b92915050565b600080600080608085870312156200052857620005276200033d565b5b600085015167ffffffffffffffff81111562000549576200054862000342565b5b62000557878288016200049d565b945050602085015167ffffffffffffffff8111156200057b576200057a62000342565b5b62000589878288016200049d565b935050604085015167ffffffffffffffff811115620005ad57620005ac62000342565b5b620005bb878288016200049d565b9250506060620005ce87828801620004f4565b91505092959194509250565b600081519050919050565b600082825260208201905092915050565b60006200060382620005da565b6200060f8185620005e5565b9350620006218185602086016200041c565b6200062c8162000351565b840191505092915050565b60006040820190508181036000830152620006538185620005f6565b90508181036020830152620006698184620005f6565b90509392505050565b7f4e487b7100000000000000000000000000000000000000000000000000000000600052602260045260246000fd5b60006002820490506001821680620006ba57607f821691505b60208210811415620006d157620006d062000672565b5b50919050565b614e8b80620006e76000396000f3fe60806040526004361061019c5760003560e01c80636352211e116100ec578063b88d4fde1161008a578063d52901da11610064578063d52901da14610613578063e985e9c51461063c578063f2c298be14610679578063fb825e5f146106955761019c565b8063b88d4fde14610570578063bf40fac114610599578063c87b56dd146105d65761019c565b80638da5cb5b116100c65780638da5cb5b146104c657806395d89b41146104f1578063a035b1fe1461051c578063a22cb465146105475761019c565b80636352211e146104215780636c02a9311461045e57806370a08231146104895761019c565b806323b872dd116101595780633ccfd60b116101335780633ccfd60b1461036657806342842e0e1461037d5780634622ab03146103a6578063541e771d146103e35761019c565b806323b872dd146102d557806326449235146102fe5780632d5514321461033b5761019c565b806301ffc9a7146101a157806306fdde03146101de578063081812fc14610209578063095ea7b31461024657806311dd88451461026f57806313af4035146102ac575b600080fd5b3480156101ad57600080fd5b506101c860048036038101906101c39190612fce565b6106c0565b6040516101d59190613016565b60405180910390f35b3480156101ea57600080fd5b506101f36107a2565b60405161020091906130ca565b60405180910390f35b34801561021557600080fd5b50610230600480360381019061022b9190613122565b610834565b60405161023d9190613190565b60405180910390f35b34801561025257600080fd5b5061026d600480360381019061026891906131d7565b6108b9565b005b34801561027b57600080fd5b506102966004803603810190610291919061327c565b6109d1565b6040516102a39190613357565b60405180910390f35b3480156102b857600080fd5b506102d360048036038101906102ce9190613379565b610b30565b005b3480156102e157600080fd5b506102fc60048036038101906102f791906133a6565b610c77565b005b34801561030a57600080fd5b5061032560048036038101906103209190613529565b610cd7565b6040516103329190613190565b60405180910390f35b34801561034757600080fd5b50610350610d20565b60405161035d91906130ca565b60405180910390f35b34801561037257600080fd5b5061037b610dae565b005b34801561038957600080fd5b506103a4600480360381019061039f91906133a6565b610ee1565b005b3480156103b257600080fd5b506103cd60048036038101906103c89190613122565b610f01565b6040516103da91906130ca565b60405180910390f35b3480156103ef57600080fd5b5061040a60048036038101906104059190613529565b610fa1565b604051610418929190613572565b60405180910390f35b34801561042d57600080fd5b5061044860048036038101906104439190613122565b6110eb565b6040516104559190613190565b60405180910390f35b34801561046a57600080fd5b5061047361119d565b60405161048091906130ca565b60405180910390f35b34801561049557600080fd5b506104b060048036038101906104ab9190613379565b61122b565b6040516104bd91906135b8565b60405180910390f35b3480156104d257600080fd5b506104db6112e3565b6040516104e891906135f4565b60405180910390f35b3480156104fd57600080fd5b50610506611309565b60405161051391906130ca565b60405180910390f35b34801561052857600080fd5b5061053161139b565b60405161053e91906135b8565b60405180910390f35b34801561055357600080fd5b5061056e6004803603810190610569919061363b565b6113a1565b005b34801561057c57600080fd5b506105976004803603810190610592919061371c565b6113b7565b005b3480156105a557600080fd5b506105c060048036038101906105bb919061327c565b611419565b6040516105cd9190613190565b60405180910390f35b3480156105e257600080fd5b506105fd60048036038101906105f89190613122565b611464565b60405161060a91906130ca565b60405180910390f35b34801561061f57600080fd5b5061063a600480360381019061063591906137c3565b6115b6565b005b34801561064857600080fd5b50610663600480360381019061065e919061383f565b611690565b6040516106709190613016565b60405180910390f35b610693600480360381019061068e919061327c565b611724565b005b3480156106a157600080fd5b506106aa611ac1565b6040516106b79190613941565b60405180910390f35b60007f80ac58cd000000000000000000000000000000000000000000000000000000007bffffffffffffffffffffffffffffffffffffffffffffffffffffffff1916827bffffffffffffffffffffffffffffffffffffffffffffffffffffffff1916148061078b57507f5b5e139f000000000000000000000000000000000000000000000000000000007bffffffffffffffffffffffffffffffffffffffffffffffffffffffff1916827bffffffffffffffffffffffffffffffffffffffffffffffffffffffff1916145b8061079b575061079a82611ca3565b5b9050919050565b6060600080546107b190613992565b80601f01602080910402602001604051908101604052809291908181526020018280546107dd90613992565b801561082a5780601f106107ff5761010080835404028352916020019161082a565b820191906000526020600020905b81548152906001019060200180831161080d57829003601f168201915b5050505050905090565b600061083f82611d0d565b61087e576040517f08c379a000000000000000000000000000000000000000000000000000000000815260040161087590613a36565b60405180910390fd5b6004600083815260200190815260200160002060009054906101000a900473ffffffffffffffffffffffffffffffffffffffff169050919050565b60006108c4826110eb565b90508073ffffffffffffffffffffffffffffffffffffffff168373ffffffffffffffffffffffffffffffffffffffff161415610935576040517f08c379a000000000000000000000000000000000000000000000000000000000815260040161092c90613ac8565b60405180910390fd5b8073ffffffffffffffffffffffffffffffffffffffff16610954611d79565b73ffffffffffffffffffffffffffffffffffffffff16148061098357506109828161097d611d79565b611690565b5b6109c2576040517f08c379a00000000000000000000000000000000000000000000000000000000081526004016109b990613b5a565b60405180910390fd5b6109cc8383611d81565b505050565b6109d9612e1f565b601083836040516109eb929190613baa565b9081526020016040518091039020604051806040016040529081600082018054610a1490613992565b80601f0160208091040260200160405190810160405280929190818152602001828054610a4090613992565b8015610a8d5780601f10610a6257610100808354040283529160200191610a8d565b820191906000526020600020905b815481529060010190602001808311610a7057829003601f168201915b50505050508152602001600182018054610aa690613992565b80601f0160208091040260200160405190810160405280929190818152602001828054610ad290613992565b8015610b1f5780601f10610af457610100808354040283529160200191610b1f565b820191906000526020600020905b815481529060010190602001808311610b0257829003601f168201915b505050505081525050905092915050565b600760009054906101000a900473ffffffffffffffffffffffffffffffffffffffff1673ffffffffffffffffffffffffffffffffffffffff163373ffffffffffffffffffffffffffffffffffffffff1614610bb7576040517f30cd747100000000000000000000000000000000000000000000000000000000815260040160405180910390fd5b8073ffffffffffffffffffffffffffffffffffffffff16600760009054906101000a900473ffffffffffffffffffffffffffffffffffffffff1673ffffffffffffffffffffffffffffffffffffffff167fb532073b38c83145e3e5135377a08bf9aab55bc0fd7c1179cd4fb995d2a5159c60405160405180910390a380600760006101000a81548173ffffffffffffffffffffffffffffffffffffffff021916908373ffffffffffffffffffffffffffffffffffffffff16021790555050565b610c88610c82611d79565b82611e3a565b610cc7576040517f08c379a0000000000000000000000000000000000000000000000000000000008152600401610cbe90613c35565b60405180910390fd5b610cd2838383611f18565b505050565b600e818051602081018201805184825260208301602085012081835280955050505050506000915054906101000a900473ffffffffffffffffffffffffffffffffffffffff1681565b600a8054610d2d90613992565b80601f0160208091040260200160405190810160405280929190818152602001828054610d5990613992565b8015610da65780601f10610d7b57610100808354040283529160200191610da6565b820191906000526020600020905b815481529060010190602001808311610d8957829003601f168201915b505050505081565b600760009054906101000a900473ffffffffffffffffffffffffffffffffffffffff1673ffffffffffffffffffffffffffffffffffffffff163373ffffffffffffffffffffffffffffffffffffffff1614610e35576040517f30cd747100000000000000000000000000000000000000000000000000000000815260040160405180910390fd5b600047905060003373ffffffffffffffffffffffffffffffffffffffff1682604051610e6090613c86565b60006040518083038185875af1925050503d8060008114610e9d576040519150601f19603f3d011682016040523d82523d6000602084013e610ea2565b606091505b5050905080610edd576040517f27fcd9d100000000000000000000000000000000000000000000000000000000815260040160405180910390fd5b5050565b610efc838383604051806020016040528060008152506113b7565b505050565b600f6020528060005260406000206000915090508054610f2090613992565b80601f0160208091040260200160405190810160405280929190818152602001828054610f4c90613992565b8015610f995780601f10610f6e57610100808354040283529160200191610f99565b820191906000526020600020905b815481529060010190602001808311610f7c57829003601f168201915b505050505081565b601081805160208101820180518482526020830160208501208183528095505050505050600091509050806000018054610fda90613992565b80601f016020809104026020016040519081016040528092919081815260200182805461100690613992565b80156110535780601f1061102857610100808354040283529160200191611053565b820191906000526020600020905b81548152906001019060200180831161103657829003601f168201915b50505050509080600101805461106890613992565b80601f016020809104026020016040519081016040528092919081815260200182805461109490613992565b80156110e15780601f106110b6576101008083540402835291602001916110e1565b820191906000526020600020905b8154815290600101906020018083116110c457829003601f168201915b5050505050905082565b6000806002600084815260200190815260200160002060009054906101000a900473ffffffffffffffffffffffffffffffffffffffff169050600073ffffffffffffffffffffffffffffffffffffffff168173ffffffffffffffffffffffffffffffffffffffff161415611194576040517f08c379a000000000000000000000000000000000000000000000000000000000815260040161118b90613d0d565b60405180910390fd5b80915050919050565b600980546111aa90613992565b80601f01602080910402602001604051908101604052809291908181526020018280546111d690613992565b80156112235780601f106111f857610100808354040283529160200191611223565b820191906000526020600020905b81548152906001019060200180831161120657829003601f168201915b505050505081565b60008073ffffffffffffffffffffffffffffffffffffffff168273ffffffffffffffffffffffffffffffffffffffff16141561129c576040517f08c379a000000000000000000000000000000000000000000000000000000000815260040161129390613d9f565b60405180910390fd5b600360008373ffffffffffffffffffffffffffffffffffffffff1673ffffffffffffffffffffffffffffffffffffffff168152602001908152602001600020549050919050565b600760009054906101000a900473ffffffffffffffffffffffffffffffffffffffff1681565b60606001805461131890613992565b80601f016020809104026020016040519081016040528092919081815260200182805461134490613992565b80156113915780601f1061136657610100808354040283529160200191611391565b820191906000526020600020905b81548152906001019060200180831161137457829003601f168201915b5050505050905090565b600b5481565b6113b36113ac611d79565b838361217f565b5050565b6113c86113c2611d79565b83611e3a565b611407576040517f08c379a00000000000000000000000000000000000000000000000000000000081526004016113fe90613c35565b60405180910390fd5b611413848484846122ec565b50505050565b6000600e838360405161142d929190613baa565b908152602001604051809103902060009054906101000a900473ffffffffffffffffffffffffffffffffffffffff16905092915050565b606061146f82611d0d565b6114ae576040517f08c379a00000000000000000000000000000000000000000000000000000000081526004016114a590613e31565b60405180910390fd5b60006006600084815260200190815260200160002080546114ce90613992565b80601f01602080910402602001604051908101604052809291908181526020018280546114fa90613992565b80156115475780601f1061151c57610100808354040283529160200191611547565b820191906000526020600020905b81548152906001019060200180831161152a57829003601f168201915b505050505090506000611558612348565b905060008151141561156e5781925050506115b1565b6000825111156115a357808260405160200161158b929190613e82565b604051602081830303815290604052925050506115b1565b6115ac8461235f565b925050505b919050565b3373ffffffffffffffffffffffffffffffffffffffff16600e84846040516115df929190613baa565b908152602001604051809103902060009054906101000a900473ffffffffffffffffffffffffffffffffffffffff1673ffffffffffffffffffffffffffffffffffffffff161461165b576040517f28c3794a00000000000000000000000000000000000000000000000000000000815260040160405180910390fd5b806010848460405161166e929190613baa565b9081526020016040518091039020818161168891906141f5565b905050505050565b6000600560008473ffffffffffffffffffffffffffffffffffffffff1673ffffffffffffffffffffffffffffffffffffffff16815260200190815260200160002060008373ffffffffffffffffffffffffffffffffffffffff1673ffffffffffffffffffffffffffffffffffffffff16815260200190815260200160002060009054906101000a900460ff16905092915050565b600073ffffffffffffffffffffffffffffffffffffffff16600e838360405161174e929190613baa565b908152602001604051809103902060009054906101000a900473ffffffffffffffffffffffffffffffffffffffff1673ffffffffffffffffffffffffffffffffffffffff16146117ca576040517f3a81d6fc00000000000000000000000000000000000000000000000000000000815260040160405180910390fd5b600b54341015611806576040517facd245cb00000000000000000000000000000000000000000000000000000000815260040160405180910390fd5b60008282600a60405160200161181e939291906142ce565b60405160208183030381529060405290506000600c82600d604051602001611848939291906142ff565b604051602081830303815290604052905060006118656008612406565b905060006118b686868080601f016020809104026020016040519081016040528093929190818152602001838380828437600081840152601f19601f82011690508083019250505050505050612414565b905060006118c3826125c9565b90506119b7604051806060016040528060318152602001614de56031913988888080601f016020809104026020016040519081016040528093929190818152602001838380828437600081840152601f19601f82011690508083019250505050505050600a805461193390613992565b80601f016020809104026020016040519081016040528092919081815260200182805461195f90613992565b80156119ac5780601f10611981576101008083540402835291602001916119ac565b820191906000526020600020905b81548152906001019060200180831161198f57829003601f168201915b50505050508661272a565b60006119f08660096119c8886127cc565b856040516020016119dc94939291906144f8565b6040516020818303038152906040526127cc565b9050600081604051602001611a0591906145b9565b6040516020818303038152906040529050611a203386612964565b611a2a8582612982565b33600e8a8a604051611a3d929190613baa565b908152602001604051809103902060006101000a81548173ffffffffffffffffffffffffffffffffffffffff021916908373ffffffffffffffffffffffffffffffffffffffff1602179055508888600f60008881526020019081526020016000209190611aab929190612e39565b50611ab660086129f6565b505050505050505050565b60606000611acf6008612406565b67ffffffffffffffff811115611ae857611ae76133fe565b5b604051908082528060200260200182016040528015611b1b57816020015b6060815260200190600190039081611b065790505b50905060005b611b2b6008612406565b811015611bff57600f60008281526020019081526020016000208054611b5090613992565b80601f0160208091040260200160405190810160405280929190818152602001828054611b7c90613992565b8015611bc95780601f10611b9e57610100808354040283529160200191611bc9565b820191906000526020600020905b815481529060010190602001808311611bac57829003601f168201915b5050505050828281518110611be157611be06145db565b5b60200260200101819052508080611bf790614639565b915050611b21565b508091505090565b611c9f8282604051602401611c1d929190613572565b6040516020818303038152906040527f4b5c4277000000000000000000000000000000000000000000000000000000007bffffffffffffffffffffffffffffffffffffffffffffffffffffffff19166020820180517bffffffffffffffffffffffffffffffffffffffffffffffffffffffff8381831617835250505050612a0c565b5050565b60007f01ffc9a7000000000000000000000000000000000000000000000000000000007bffffffffffffffffffffffffffffffffffffffffffffffffffffffff1916827bffffffffffffffffffffffffffffffffffffffffffffffffffffffff1916149050919050565b60008073ffffffffffffffffffffffffffffffffffffffff166002600084815260200190815260200160002060009054906101000a900473ffffffffffffffffffffffffffffffffffffffff1673ffffffffffffffffffffffffffffffffffffffff1614159050919050565b600033905090565b816004600083815260200190815260200160002060006101000a81548173ffffffffffffffffffffffffffffffffffffffff021916908373ffffffffffffffffffffffffffffffffffffffff160217905550808273ffffffffffffffffffffffffffffffffffffffff16611df4836110eb565b73ffffffffffffffffffffffffffffffffffffffff167f8c5be1e5ebec7d5bd14f71427d1e84f3dd0314c0f7b2291e5b200ac8c7c3b92560405160405180910390a45050565b6000611e4582611d0d565b611e84576040517f08c379a0000000000000000000000000000000000000000000000000000000008152600401611e7b906146f4565b60405180910390fd5b6000611e8f836110eb565b90508073ffffffffffffffffffffffffffffffffffffffff168473ffffffffffffffffffffffffffffffffffffffff161480611efe57508373ffffffffffffffffffffffffffffffffffffffff16611ee684610834565b73ffffffffffffffffffffffffffffffffffffffff16145b80611f0f5750611f0e8185611690565b5b91505092915050565b8273ffffffffffffffffffffffffffffffffffffffff16611f38826110eb565b73ffffffffffffffffffffffffffffffffffffffff1614611f8e576040517f08c379a0000000000000000000000000000000000000000000000000000000008152600401611f8590614786565b60405180910390fd5b600073ffffffffffffffffffffffffffffffffffffffff168273ffffffffffffffffffffffffffffffffffffffff161415611ffe576040517f08c379a0000000000000000000000000000000000000000000000000000000008152600401611ff590614818565b60405180910390fd5b612009838383612a35565b612014600082611d81565b6001600360008573ffffffffffffffffffffffffffffffffffffffff1673ffffffffffffffffffffffffffffffffffffffff16815260200190815260200160002060008282546120649190614838565b925050819055506001600360008473ffffffffffffffffffffffffffffffffffffffff1673ffffffffffffffffffffffffffffffffffffffff16815260200190815260200160002060008282546120bb919061486c565b92505081905550816002600083815260200190815260200160002060006101000a81548173ffffffffffffffffffffffffffffffffffffffff021916908373ffffffffffffffffffffffffffffffffffffffff160217905550808273ffffffffffffffffffffffffffffffffffffffff168473ffffffffffffffffffffffffffffffffffffffff167fddf252ad1be2c89b69c2b068fc378daa952ba7f163c4a11628f55a4df523b3ef60405160405180910390a461217a838383612a3a565b505050565b8173ffffffffffffffffffffffffffffffffffffffff168373ffffffffffffffffffffffffffffffffffffffff1614156121ee576040517f08c379a00000000000000000000000000000000000000000000000000000000081526004016121e59061490e565b60405180910390fd5b80600560008573ffffffffffffffffffffffffffffffffffffffff1673ffffffffffffffffffffffffffffffffffffffff16815260200190815260200160002060008473ffffffffffffffffffffffffffffffffffffffff1673ffffffffffffffffffffffffffffffffffffffff16815260200190815260200160002060006101000a81548160ff0219169083151502179055508173ffffffffffffffffffffffffffffffffffffffff168373ffffffffffffffffffffffffffffffffffffffff167f17307eab39ab6107e8899845ad3d59bd9653f200f220920489ca2b5937696c31836040516122df9190613016565b60405180910390a3505050565b6122f7848484611f18565b61230384848484612a3f565b612342576040517f08c379a0000000000000000000000000000000000000000000000000000000008152600401612339906149a0565b60405180910390fd5b50505050565b606060405180602001604052806000815250905090565b606061236a82611d0d565b6123a9576040517f08c379a00000000000000000000000000000000000000000000000000000000081526004016123a090614a32565b60405180910390fd5b60006123b3612348565b905060008151116123d357604051806020016040528060008152506123fe565b806123dd846125c9565b6040516020016123ee929190613e82565b6040516020818303038152906040525b915050919050565b600081600001549050919050565b60008060008084519050600092505b808210156125be5760008583815181106124405761243f6145db565b5b602001015160f81c60f81b9050608060f81b817effffffffffffffffffffffffffffffffffffffffffffffffffffffffffffff1916101561248f57600183612488919061486c565b92506125aa565b60e060f81b817effffffffffffffffffffffffffffffffffffffffffffffffffffffffffffff191610156124d1576002836124ca919061486c565b92506125a9565b60f060f81b817effffffffffffffffffffffffffffffffffffffffffffffffffffffffffffff191610156125135760038361250c919061486c565b92506125a8565b60f8801b817effffffffffffffffffffffffffffffffffffffffffffffffffffffffffffff191610156125545760048361254d919061486c565b92506125a7565b60fc60f81b817effffffffffffffffffffffffffffffffffffffffffffffffffffffffffffff191610156125965760058361258f919061486c565b92506125a6565b6006836125a3919061486c565b92505b5b5b5b5b5082806125b690614639565b935050612423565b829350505050919050565b60606000821415612611576040518060400160405280600181526020017f30000000000000000000000000000000000000000000000000000000000000008152509050612725565b600082905060005b6000821461264357808061262c90614639565b915050600a8261263c9190614a81565b9150612619565b60008167ffffffffffffffff81111561265f5761265e6133fe565b5b6040519080825280601f01601f1916602001820160405280156126915781602001600182028036833780820191505090505b5090505b6000851461271e576001826126aa9190614838565b9150600a856126b99190614ab2565b60306126c5919061486c565b60f81b8183815181106126db576126da6145db565b5b60200101907effffffffffffffffffffffffffffffffffffffffffffffffffffffffffffff1916908160001a905350600a856127179190614a81565b9450612695565b8093505050505b919050565b6127c6848484846040516024016127449493929190614ae3565b6040516020818303038152906040527f9fd009f5000000000000000000000000000000000000000000000000000000007bffffffffffffffffffffffffffffffffffffffffffffffffffffffff19166020820180517bffffffffffffffffffffffffffffffffffffffffffffffffffffffff8381831617835250505050612a0c565b50505050565b606060008251905060008114156127f5576040518060200160405280600081525091505061295f565b60006003600283612806919061486c565b6128109190614a81565b600461281c9190614b3d565b9050600060208261282d919061486c565b67ffffffffffffffff811115612846576128456133fe565b5b6040519080825280601f01601f1916602001820160405280156128785781602001600182028036833780820191505090505b5090506000604051806060016040528060408152602001614e16604091399050600181016020830160005b8681101561291c5760038101905062ffffff818a015116603f8160121c168401518060081b905060ff603f83600c1c1686015116810190508060081b905060ff603f8360061c1686015116810190508060081b905060ff603f831686015116810190508060e01b905080845260048401935050506128a3565b506003860660018114612936576002811461294657612951565b613d3d60f01b6002830352612951565b603d60f81b60018303525b508484525050819450505050505b919050565b61297e828260405180602001604052806000815250612bc7565b5050565b61298b82611d0d565b6129ca576040517f08c379a00000000000000000000000000000000000000000000000000000000081526004016129c190614c09565b60405180910390fd5b806006600084815260200190815260200160002090805190602001906129f1929190612ebf565b505050565b6001816000016000828254019250508190555050565b60008151905060006a636f6e736f6c652e6c6f679050602083016000808483855afa5050505050565b505050565b505050565b6000612a608473ffffffffffffffffffffffffffffffffffffffff16612c22565b15612bba578373ffffffffffffffffffffffffffffffffffffffff1663150b7a02612a89611d79565b8786866040518563ffffffff1660e01b8152600401612aab9493929190614c7e565b6020604051808303816000875af1925050508015612ae757506040513d601f19601f82011682018060405250810190612ae49190614cdf565b60015b612b6a573d8060008114612b17576040519150601f19603f3d011682016040523d82523d6000602084013e612b1c565b606091505b50600081511415612b62576040517f08c379a0000000000000000000000000000000000000000000000000000000008152600401612b59906149a0565b60405180910390fd5b805181602001fd5b63150b7a0260e01b7bffffffffffffffffffffffffffffffffffffffffffffffffffffffff1916817bffffffffffffffffffffffffffffffffffffffffffffffffffffffff191614915050612bbf565b600190505b949350505050565b612bd18383612c45565b612bde6000848484612a3f565b612c1d576040517f08c379a0000000000000000000000000000000000000000000000000000000008152600401612c14906149a0565b60405180910390fd5b505050565b6000808273ffffffffffffffffffffffffffffffffffffffff163b119050919050565b600073ffffffffffffffffffffffffffffffffffffffff168273ffffffffffffffffffffffffffffffffffffffff161415612cb5576040517f08c379a0000000000000000000000000000000000000000000000000000000008152600401612cac90614d58565b60405180910390fd5b612cbe81611d0d565b15612cfe576040517f08c379a0000000000000000000000000000000000000000000000000000000008152600401612cf590614dc4565b60405180910390fd5b612d0a60008383612a35565b6001600360008473ffffffffffffffffffffffffffffffffffffffff1673ffffffffffffffffffffffffffffffffffffffff1681526020019081526020016000206000828254612d5a919061486c565b92505081905550816002600083815260200190815260200160002060006101000a81548173ffffffffffffffffffffffffffffffffffffffff021916908373ffffffffffffffffffffffffffffffffffffffff160217905550808273ffffffffffffffffffffffffffffffffffffffff16600073ffffffffffffffffffffffffffffffffffffffff167fddf252ad1be2c89b69c2b068fc378daa952ba7f163c4a11628f55a4df523b3ef60405160405180910390a4612e1b60008383612a3a565b5050565b604051806040016040528060608152602001606081525090565b828054612e4590613992565b90600052602060002090601f016020900481019282612e675760008555612eae565b82601f10612e8057803560ff1916838001178555612eae565b82800160010185558215612eae579182015b82811115612ead578235825591602001919060010190612e92565b5b509050612ebb9190612f45565b5090565b828054612ecb90613992565b90600052602060002090601f016020900481019282612eed5760008555612f34565b82601f10612f0657805160ff1916838001178555612f34565b82800160010185558215612f34579182015b82811115612f33578251825591602001919060010190612f18565b5b509050612f419190612f45565b5090565b5b80821115612f5e576000816000905550600101612f46565b5090565b6000604051905090565b600080fd5b600080fd5b60007fffffffff0000000000000000000000000000000000000000000000000000000082169050919050565b612fab81612f76565b8114612fb657600080fd5b50565b600081359050612fc881612fa2565b92915050565b600060208284031215612fe457612fe3612f6c565b5b6000612ff284828501612fb9565b91505092915050565b60008115159050919050565b61301081612ffb565b82525050565b600060208201905061302b6000830184613007565b92915050565b600081519050919050565b600082825260208201905092915050565b60005b8381101561306b578082015181840152602081019050613050565b8381111561307a576000848401525b50505050565b6000601f19601f8301169050919050565b600061309c82613031565b6130a6818561303c565b93506130b681856020860161304d565b6130bf81613080565b840191505092915050565b600060208201905081810360008301526130e48184613091565b905092915050565b6000819050919050565b6130ff816130ec565b811461310a57600080fd5b50565b60008135905061311c816130f6565b92915050565b60006020828403121561313857613137612f6c565b5b60006131468482850161310d565b91505092915050565b600073ffffffffffffffffffffffffffffffffffffffff82169050919050565b600061317a8261314f565b9050919050565b61318a8161316f565b82525050565b60006020820190506131a56000830184613181565b92915050565b6131b48161316f565b81146131bf57600080fd5b50565b6000813590506131d1816131ab565b92915050565b600080604083850312156131ee576131ed612f6c565b5b60006131fc858286016131c2565b925050602061320d8582860161310d565b9150509250929050565b600080fd5b600080fd5b600080fd5b60008083601f84011261323c5761323b613217565b5b8235905067ffffffffffffffff8111156132595761325861321c565b5b60208301915083600182028301111561327557613274613221565b5b9250929050565b6000806020838503121561329357613292612f6c565b5b600083013567ffffffffffffffff8111156132b1576132b0612f71565b5b6132bd85828601613226565b92509250509250929050565b600082825260208201905092915050565b60006132e582613031565b6132ef81856132c9565b93506132ff81856020860161304d565b61330881613080565b840191505092915050565b6000604083016000830151848203600086015261333082826132da565b9150506020830151848203602086015261334a82826132da565b9150508091505092915050565b600060208201905081810360008301526133718184613313565b905092915050565b60006020828403121561338f5761338e612f6c565b5b600061339d848285016131c2565b91505092915050565b6000806000606084860312156133bf576133be612f6c565b5b60006133cd868287016131c2565b93505060206133de868287016131c2565b92505060406133ef8682870161310d565b9150509250925092565b600080fd5b7f4e487b7100000000000000000000000000000000000000000000000000000000600052604160045260246000fd5b61343682613080565b810181811067ffffffffffffffff82111715613455576134546133fe565b5b80604052505050565b6000613468612f62565b9050613474828261342d565b919050565b600067ffffffffffffffff821115613494576134936133fe565b5b61349d82613080565b9050602081019050919050565b82818337600083830152505050565b60006134cc6134c784613479565b61345e565b9050828152602081018484840111156134e8576134e76133f9565b5b6134f38482856134aa565b509392505050565b600082601f8301126135105761350f613217565b5b81356135208482602086016134b9565b91505092915050565b60006020828403121561353f5761353e612f6c565b5b600082013567ffffffffffffffff81111561355d5761355c612f71565b5b613569848285016134fb565b91505092915050565b6000604082019050818103600083015261358c8185613091565b905081810360208301526135a08184613091565b90509392505050565b6135b2816130ec565b82525050565b60006020820190506135cd60008301846135a9565b92915050565b60006135de8261314f565b9050919050565b6135ee816135d3565b82525050565b600060208201905061360960008301846135e5565b92915050565b61361881612ffb565b811461362357600080fd5b50565b6000813590506136358161360f565b92915050565b6000806040838503121561365257613651612f6c565b5b6000613660858286016131c2565b925050602061367185828601613626565b9150509250929050565b600067ffffffffffffffff821115613696576136956133fe565b5b61369f82613080565b9050602081019050919050565b60006136bf6136ba8461367b565b61345e565b9050828152602081018484840111156136db576136da6133f9565b5b6136e68482856134aa565b509392505050565b600082601f83011261370357613702613217565b5b81356137138482602086016136ac565b91505092915050565b6000806000806080858703121561373657613735612f6c565b5b6000613744878288016131c2565b9450506020613755878288016131c2565b93505060406137668782880161310d565b925050606085013567ffffffffffffffff81111561378757613786612f71565b5b613793878288016136ee565b91505092959194509250565b600080fd5b6000604082840312156137ba576137b961379f565b5b81905092915050565b6000806000604084860312156137dc576137db612f6c565b5b600084013567ffffffffffffffff8111156137fa576137f9612f71565b5b61380686828701613226565b9350935050602084013567ffffffffffffffff81111561382957613828612f71565b5b613835868287016137a4565b9150509250925092565b6000806040838503121561385657613855612f6c565b5b6000613864858286016131c2565b9250506020613875858286016131c2565b9150509250929050565b600081519050919050565b600082825260208201905092915050565b6000819050602082019050919050565b60006138b783836132da565b905092915050565b6000602082019050919050565b60006138d78261387f565b6138e1818561388a565b9350836020820285016138f38561389b565b8060005b8581101561392f578484038952815161391085826138ab565b945061391b836138bf565b925060208a019950506001810190506138f7565b50829750879550505050505092915050565b6000602082019050818103600083015261395b81846138cc565b905092915050565b7f4e487b7100000000000000000000000000000000000000000000000000000000600052602260045260246000fd5b600060028204905060018216806139aa57607f821691505b602082108114156139be576139bd613963565b5b50919050565b7f4552433732313a20617070726f76656420717565727920666f72206e6f6e657860008201527f697374656e7420746f6b656e0000000000000000000000000000000000000000602082015250565b6000613a20602c8361303c565b9150613a2b826139c4565b604082019050919050565b60006020820190508181036000830152613a4f81613a13565b9050919050565b7f4552433732313a20617070726f76616c20746f2063757272656e74206f776e6560008201527f7200000000000000000000000000000000000000000000000000000000000000602082015250565b6000613ab260218361303c565b9150613abd82613a56565b604082019050919050565b60006020820190508181036000830152613ae181613aa5565b9050919050565b7f4552433732313a20617070726f76652063616c6c6572206973206e6f74206f7760008201527f6e6572206e6f7220617070726f76656420666f7220616c6c0000000000000000602082015250565b6000613b4460388361303c565b9150613b4f82613ae8565b604082019050919050565b60006020820190508181036000830152613b7381613b37565b9050919050565b600081905092915050565b6000613b918385613b7a565b9350613b9e8385846134aa565b82840190509392505050565b6000613bb7828486613b85565b91508190509392505050565b7f4552433732313a207472616e736665722063616c6c6572206973206e6f74206f60008201527f776e6572206e6f7220617070726f766564000000000000000000000000000000602082015250565b6000613c1f60318361303c565b9150613c2a82613bc3565b604082019050919050565b60006020820190508181036000830152613c4e81613c12565b9050919050565b600081905092915050565b50565b6000613c70600083613c55565b9150613c7b82613c60565b600082019050919050565b6000613c9182613c63565b9150819050919050565b7f4552433732313a206f776e657220717565727920666f72206e6f6e657869737460008201527f656e7420746f6b656e0000000000000000000000000000000000000000000000602082015250565b6000613cf760298361303c565b9150613d0282613c9b565b604082019050919050565b60006020820190508181036000830152613d2681613cea565b9050919050565b7f4552433732313a2062616c616e636520717565727920666f7220746865207a6560008201527f726f206164647265737300000000000000000000000000000000000000000000602082015250565b6000613d89602a8361303c565b9150613d9482613d2d565b604082019050919050565b60006020820190508181036000830152613db881613d7c565b9050919050565b7f45524337323155524953746f726167653a2055524920717565727920666f722060008201527f6e6f6e6578697374656e7420746f6b656e000000000000000000000000000000602082015250565b6000613e1b60318361303c565b9150613e2682613dbf565b604082019050919050565b60006020820190508181036000830152613e4a81613e0e565b9050919050565b6000613e5c82613031565b613e668185613b7a565b9350613e7681856020860161304d565b80840191505092915050565b6000613e8e8285613e51565b9150613e9a8284613e51565b91508190509392505050565b600080fd5b600080fd5b600080fd5b60008083356001602003843603038112613ed257613ed1613ea6565b5b80840192508235915067ffffffffffffffff821115613ef457613ef3613eab565b5b602083019250600182023603831315613f1057613f0f613eb0565b5b509250929050565b600082905092915050565b60008190508160005260206000209050919050565b60006020601f8301049050919050565b600082821b905092915050565b600060088302613f857fffffffffffffffffffffffffffffffffffffffffffffffffffffffffffffffff82613f48565b613f8f8683613f48565b95508019841693508086168417925050509392505050565b6000819050919050565b6000613fcc613fc7613fc2846130ec565b613fa7565b6130ec565b9050919050565b6000819050919050565b613fe683613fb1565b613ffa613ff282613fd3565b848454613f55565b825550505050565b600090565b61400f614002565b61401a818484613fdd565b505050565b5b8181101561403e57614033600082614007565b600181019050614020565b5050565b601f8211156140835761405481613f23565b61405d84613f38565b8101602085101561406c578190505b61408061407885613f38565b83018261401f565b50505b505050565b600082821c905092915050565b60006140a660001984600802614088565b1980831691505092915050565b60006140bf8383614095565b9150826002028217905092915050565b6140d98383613f18565b67ffffffffffffffff8111156140f2576140f16133fe565b5b6140fc8254613992565b614107828285614042565b6000601f8311600181146141365760008415614124578287013590505b61412e85826140b3565b865550614196565b601f19841661414486613f23565b60005b8281101561416c57848901358255600182019150602085019450602081019050614147565b868310156141895784890135614185601f891682614095565b8355505b6001600288020188555050505b50505050505050565b6141aa8383836140cf565b505050565b60008101600083016141c18185613eb5565b6141cc81838661419f565b5050505060018101602083016141e28185613eb5565b6141ed81838661419f565b505050505050565b6141ff82826141af565b5050565b7f2e00000000000000000000000000000000000000000000000000000000000000600082015250565b6000614239600183613b7a565b915061424482614203565b600182019050919050565b6000815461425c81613992565b6142668186613b7a565b945060018216600081146142815760018114614292576142c5565b60ff198316865281860193506142c5565b61429b85613f23565b60005b838110156142bd5781548189015260018201915060208101905061429e565b838801955050505b50505092915050565b60006142db828587613b85565b91506142e68261422c565b91506142f2828461424f565b9150819050949350505050565b600061430b828661424f565b91506143178285613e51565b9150614323828461424f565b9150819050949350505050565b7f7b226e616d65223a202200000000000000000000000000000000000000000000600082015250565b6000614366600a83613b7a565b915061437182614330565b600a82019050919050565b7f222c20226465736372697074696f6e223a20224120646f6d61696e206f6e207460008201527f6865200000000000000000000000000000000000000000000000000000000000602082015250565b60006143d8602383613b7a565b91506143e38261437c565b602382019050919050565b7f222c2022696d616765223a2022646174613a696d6167652f7376672b786d6c3b60008201527f6261736536342c00000000000000000000000000000000000000000000000000602082015250565b600061444a602783613b7a565b9150614455826143ee565b602782019050919050565b7f222c226c656e677468223a220000000000000000000000000000000000000000600082015250565b6000614496600c83613b7a565b91506144a182614460565b600c82019050919050565b7f227d000000000000000000000000000000000000000000000000000000000000600082015250565b60006144e2600283613b7a565b91506144ed826144ac565b600282019050919050565b600061450382614359565b915061450f8287613e51565b915061451a826143cb565b9150614526828661424f565b91506145318261443d565b915061453d8285613e51565b915061454882614489565b91506145548284613e51565b915061455f826144d5565b915081905095945050505050565b7f646174613a6170706c69636174696f6e2f6a736f6e3b6261736536342c000000600082015250565b60006145a3601d83613b7a565b91506145ae8261456d565b601d82019050919050565b60006145c482614596565b91506145d08284613e51565b915081905092915050565b7f4e487b7100000000000000000000000000000000000000000000000000000000600052603260045260246000fd5b7f4e487b7100000000000000000000000000000000000000000000000000000000600052601160045260246000fd5b6000614644826130ec565b91507fffffffffffffffffffffffffffffffffffffffffffffffffffffffffffffffff8214156146775761467661460a565b5b600182019050919050565b7f4552433732313a206f70657261746f7220717565727920666f72206e6f6e657860008201527f697374656e7420746f6b656e0000000000000000000000000000000000000000602082015250565b60006146de602c8361303c565b91506146e982614682565b604082019050919050565b6000602082019050818103600083015261470d816146d1565b9050919050565b7f4552433732313a207472616e736665722066726f6d20696e636f72726563742060008201527f6f776e6572000000000000000000000000000000000000000000000000000000602082015250565b600061477060258361303c565b915061477b82614714565b604082019050919050565b6000602082019050818103600083015261479f81614763565b9050919050565b7f4552433732313a207472616e7366657220746f20746865207a65726f2061646460008201527f7265737300000000000000000000000000000000000000000000000000000000602082015250565b600061480260248361303c565b915061480d826147a6565b604082019050919050565b60006020820190508181036000830152614831816147f5565b9050919050565b6000614843826130ec565b915061484e836130ec565b9250828210156148615761486061460a565b5b828203905092915050565b6000614877826130ec565b9150614882836130ec565b9250827fffffffffffffffffffffffffffffffffffffffffffffffffffffffffffffffff038211156148b7576148b661460a565b5b828201905092915050565b7f4552433732313a20617070726f766520746f2063616c6c657200000000000000600082015250565b60006148f860198361303c565b9150614903826148c2565b602082019050919050565b60006020820190508181036000830152614927816148eb565b9050919050565b7f4552433732313a207472616e7366657220746f206e6f6e20455243373231526560008201527f63656976657220696d706c656d656e7465720000000000000000000000000000602082015250565b600061498a60328361303c565b91506149958261492e565b604082019050919050565b600060208201905081810360008301526149b98161497d565b9050919050565b7f4552433732314d657461646174613a2055524920717565727920666f72206e6f60008201527f6e6578697374656e7420746f6b656e0000000000000000000000000000000000602082015250565b6000614a1c602f8361303c565b9150614a27826149c0565b604082019050919050565b60006020820190508181036000830152614a4b81614a0f565b9050919050565b7f4e487b7100000000000000000000000000000000000000000000000000000000600052601260045260246000fd5b6000614a8c826130ec565b9150614a97836130ec565b925082614aa757614aa6614a52565b5b828204905092915050565b6000614abd826130ec565b9150614ac8836130ec565b925082614ad857614ad7614a52565b5b828206905092915050565b60006080820190508181036000830152614afd8187613091565b90508181036020830152614b118186613091565b90508181036040830152614b258185613091565b9050614b3460608301846135a9565b95945050505050565b6000614b48826130ec565b9150614b53836130ec565b9250817fffffffffffffffffffffffffffffffffffffffffffffffffffffffffffffffff0483118215151615614b8c57614b8b61460a565b5b828202905092915050565b7f45524337323155524953746f726167653a2055524920736574206f66206e6f6e60008201527f6578697374656e7420746f6b656e000000000000000000000000000000000000602082015250565b6000614bf3602e8361303c565b9150614bfe82614b97565b604082019050919050565b60006020820190508181036000830152614c2281614be6565b9050919050565b600081519050919050565b600082825260208201905092915050565b6000614c5082614c29565b614c5a8185614c34565b9350614c6a81856020860161304d565b614c7381613080565b840191505092915050565b6000608082019050614c936000830187613181565b614ca06020830186613181565b614cad60408301856135a9565b8181036060830152614cbf8184614c45565b905095945050505050565b600081519050614cd981612fa2565b92915050565b600060208284031215614cf557614cf4612f6c565b5b6000614d0384828501614cca565b91505092915050565b7f4552433732313a206d696e7420746f20746865207a65726f2061646472657373600082015250565b6000614d4260208361303c565b9150614d4d82614d0c565b602082019050919050565b60006020820190508181036000830152614d7181614d35565b9050919050565b7f4552433732313a20746f6b656e20616c7265616479206d696e74656400000000600082015250565b6000614dae601c8361303c565b9150614db982614d78565b602082019050919050565b60006020820190508181036000830152614ddd81614da1565b905091905056fe5265676973746572696e672025732e2573206f6e2074686520636f6e7472616374207769746820746f6b656e49442025644142434445464748494a4b4c4d4e4f505152535455565758595a6162636465666768696a6b6c6d6e6f707172737475767778797a303132333435363738392b2fa264697066735822122071cc651b099f7d9746fd958eb49556359c6186c3e48dda111b57611dcf07de8c64736f6c634300080a00333c73766720786d6c6e733d22687474703a2f2f7777772e77332e6f72672f323030302f737667222077696474683d2232373022206865696768743d22323730222066696c6c3d226e6f6e65223e3c706174682066696c6c3d2275726c282342292220643d224d302030683237307632373048307a222f3e3c646566733e3c66696c7465722069643d22412220636f6c6f722d696e746572706f6c6174696f6e2d66696c746572733d2273524742222066696c746572556e6974733d227573657253706163654f6e55736522206865696768743d22323730222077696474683d22323730223e3c666544726f70536861646f772064783d2230222064793d22312220737464446576696174696f6e3d22322220666c6f6f642d6f7061636974793d222e323235222077696474683d223230302522206865696768743d2232303025222f3e3c2f66696c7465723e3c2f646566733e3c7061746820643d224d37322e3836332034322e393439632d2e3636382d2e3338372d312e3432362d2e35392d322e3139372d2e3539732d312e3532392e3230342d322e3139372e35396c2d31302e30383120362e3033322d362e383520332e3933342d31302e30383120362e303332632d2e3636382e3338372d312e3432362e35392d322e3139372e3539732d312e3532392d2e3230342d322e3139372d2e35396c2d382e3031332d342e37323161342e353220342e35322030203020312d312e3538392d312e363136632d2e3338342d2e3636352d2e3539342d312e3431382d2e3630382d322e313837762d392e3331632d2e3031332d2e3737352e3138352d312e3533382e3537322d322e32303861342e323520342e323520302030203120312e3632352d312e3539356c372e3838342d342e3539632e3636382d2e33383720312e3432362d2e353920322e3139372d2e353973312e3532392e32303420322e3139372e35396c372e38383420342e353961342e353220342e353220302030203120312e35383920312e363136632e3338342e3636352e35393420312e3431382e36303820322e31383776362e3033326c362e38352d342e303635762d362e303332632e3031332d2e3737352d2e3138352d312e3533382d2e3537322d322e32303861342e323520342e32352030203020302d312e3632352d312e3539354c34312e3435362032342e3539632d2e3636382d2e3338372d312e3432362d2e35392d322e3139372d2e3539732d312e3532392e3230342d322e3139372e35396c2d31342e38363420382e36353561342e323520342e32352030203020302d312e36323520312e353935632d2e3338372e36372d2e35383520312e3433342d2e35373220322e3230387631372e343431632d2e3031332e3737352e31383520312e3533382e35373220322e32303861342e323520342e323520302030203020312e36323520312e3539356c31342e38363420382e363535632e3636382e33383720312e3432362e353920322e3139372e353973312e3532392d2e32303420322e3139372d2e35396c31302e3038312d352e39303120362e38352d342e3036352031302e3038312d352e393031632e3636382d2e33383720312e3432362d2e353920322e3139372d2e353973312e3532392e32303420322e3139372e35396c372e38383420342e353961342e353220342e353220302030203120312e35383920312e363136632e3338342e3636352e35393420312e3431382e36303820322e31383776392e333131632e3031332e3737352d2e31383520312e3533382d2e35373220322e32303861342e323520342e32352030203020312d312e36323520312e3539356c2d372e38383420342e373231632d2e3636382e3338372d312e3432362e35392d322e3139372e3539732d312e3532392d2e3230342d322e3139372d2e35396c2d372e3838342d342e353961342e353220342e35322030203020312d312e3538392d312e363136632d2e3338352d2e3636352d2e3539342d312e3431382d2e3630382d322e313837762d362e3033326c2d362e383520342e30363576362e303332632d2e3031332e3737352e31383520312e3533382e35373220322e32303861342e323520342e323520302030203020312e36323520312e3539356c31342e38363420382e363535632e3636382e33383720312e3432362e353920322e3139372e353973312e3532392d2e32303420322e3139372d2e35396c31342e3836342d382e363535632e3635372d2e33393420312e3230342d2e393520312e3538392d312e363136732e3539342d312e3431382e3630392d322e3138375635352e353338632e3031332d2e3737352d2e3138352d312e3533382d2e3537322d322e32303861342e323520342e32352030203020302d312e3632352d312e3539356c2d31342e3939332d382e3738367a222066696c6c3d2223666666222f3e3c646566733e3c6c696e6561724772616469656e742069643d2242222078313d2230222079313d2230222078323d22323730222079323d2232373022206772616469656e74556e6974733d227573657253706163654f6e557365223e3c73746f702073746f702d636f6c6f723d2223636235656565222f3e3c73746f70206f66667365743d2231222073746f702d636f6c6f723d2223306364376534222073746f702d6f7061636974793d222e3939222f3e3c2f6c696e6561724772616469656e743e3c2f646566733e3c7465787420783d2233322e352220793d223233312220666f6e742d73697a653d223237222066696c6c3d2223666666222066696c7465723d2275726c282341292220666f6e742d66616d696c793d22506c7573204a616b617274612053616e732c44656a6156752053616e732c4e6f746f20436f6c6f7220456d6f6a692c4170706c6520436f6c6f7220456d6f6a692c73616e732d73657269662220666f6e742d7765696768743d22626f6c64223e",
  "linkReferences": {},
  "deployedLinkReferences": {}
}